:060000000A128A1110280B
:10000800FE00030E83160313AD000A08AE007F0836
:10001800AF000A128A112F280A128A111328831393
:10002800C230FD000830FE002C30FF00BB308400D9
:100038000A128A1544200A128A1183160313B3017F
:10004800B401B501B601B701B801B901BA0183011C
:100058000A128A15D92A0B1C322833286D2BC101A4
:10006800C10ABF01BF0ABD01BD0A831203130618E6
:100078003E283F28462883160313C1014108AB00D8
:100088002B08C000831603134008410603194D28A6
:100098004E285A284108AB002B08C0000130AB009D
:1000A8002B08BB073B088312031389000330831610
:1000B80003133B02031C612862286728BB013B0825
:1000C800831203138900831603133B08031D6D284D
:1000D8006E28AC28831203138618732874287B288B
:1000E80083160313BF013F08AB002B08BE0083161D
:1000F80003133E083F060319822883288D283F08EA
:10010800AB002B08BE000A168A1156270A128A115C
:100118009A28831203130619922893289A2883167B
:100128000313BD013D08AB002B08BC008316031365
:100138003C083D060319A128A2286C2B3D08AB00FA
:100148002B08BC000A168A11AB270A128A116C2BDD
:100158003B03031DB028B1286C2B831203138618A8
:10016800B628B728BE2883160313BF013F08AB0083
:100178002B08BE00831603133E083F060319C52843
:10018800C628042A3F08AB002B08BE0000300A121C
:100198008A1533200A128A1183160313AB002B0821
:1001A800BA00093083160313AC001B30AB00AB0B4D
:1001B800DB28AC0BDB28E02883160313A501FF30EE
:1001C800AB002B08A6000D30A7000030A800503067
:1001D800A9000030AA003A080A128A156D210A12ED
:1001E8008A11831603132608B6002508B5003608B9
:1001F800AC003508AB000310AC0CAB0C0310AC0C16
:10020800AB0C2B08831203139500831603133508D0
:100218000339AB00AB0E83120313170883160313BD
:100228002B06CF392B068312031397000930831648
:100238000313AC001B30AB00AB0B2029AC0B2029FF
:10024800252901300A128A1533200A128A118316C9
:100258000313AB002B08B900093083160313AC0055
:100268001B30AB00AB0B3629AC0B36293B29831668
:100278000313A501FF30AB002B08A6000D30A70023
:100288000030A8005030A9000030AA0039080A122E
:100298008A156D210A128A11831603132608B400E1
:1002A8002508B3003408AC003308AB000310AC0CCD
:1002B800AB0C0310AC0CAB0C2B08831203139B0084
:1002C8008316031333080139AB00AB0E83120313F3
:1002D8001D08831603132B06EF392B06831203130D
:1002E8009D008316031333080239AB00AB0EAB0D28
:1002F800831203131D08831603132B06DF392B06FD
:10030800831203139D00093083160313AC001B30BE
:10031800AB00AB0B8D29AC0B8D29922902300A1248
:100328008A1533200A128A1183160313AB002B088F
:10033800B800831203138810093083160313AC0026
:100348001B30AB00AB0BA629AC0BA629AB2983123B
:1003580003130814093083160313AC001B30AB00D9
:10036800AB0BB429AC0BB429B9298316031338088D
:1003780083120313930083160313141CC429C5297D
:10038800BF29093083160313AC001B30AB00AB0B3D
:10039800CB29AC0BCB29D02903300A128A1533207C
:1003A8000A128A1183160313AB002B08B7008312B5
:1003B80003138814093083160313AC001B30AB00F9
:1003C800AB0BE429AC0BE429E929831203130810C9
:1003D800093083160313AC001B30AB00AB0BF229BA
:1003E800AC0BF229F729831603133708831203137A
:1003F800930083160313141C022A032AFD29112AC9
:10040800831203130619092A0A2A112A83160313C9
:10041800BD013D08AB002B08BC00831603133C0844
:100428003D060319182A192A6C2B3D08AB002B0826
:10043800BC0004300A128A1533200A128A11831666
:100448000313AB002B08BA00293083160313AC0042
:100458009330AB00AB0B2E2AAC0B2E2A332A831613
:100468000313A501FF30AB002B08A6000D30A70031
:100478000030A8005030A9000030AA003A080A123B
:100488008A156D210A128A11831603132608B600ED
:100498002508B5003608AC003508AB000310AC0CD5
:1004A800AB0C0310AC0CAB0C2B0883120313950098
:1004B8008316031335080339AB00AB0E83120313FD
:1004C8001708831603132B06CF392B068312031341
:1004D8009700093083160313AC001B30AB00AB0B3D
:1004E800732AAC0B732A782A05300A128A1533202E
:1004F8000A128A1183160313AB002B08B90029309E
:1005080083160313AC009330AB00AB0B892AAC0BFA
:10051800892A8E2A83160313A501FF30AB002B0806
:10052800A6000D30A7000030A8005030A900003008
:10053800AA0039080A128A156D210A128A1183162F
:1005480003132608B4002508B3003408AC003308A8
:10055800AB000310AC0CAB0C0310AC0CAB0C2B08B1
:10056800831203139B008316031333080139AB006E
:10057800AB0E831203131D08831603132B06EF39E2
:100588002B06831203139D008316031333080239C5
:10059800AB00AB0EAB0D831203131D0883160313B8
:1005A8002B06DF392B06831203139D0009308316AF
:1005B8000313AC001B30AB00AB0BE02AAC0BE02AFA
:1005C800E52A06300A128A1533200A128A11831680
:1005D8000313AB002B08B800293083160313AC00B3
:1005E8009330AB00AB0BF62AAC0BF62AFB2A83122E
:1005F80003138810093083160313AC001B30AB00BB
:10060800AB0B042BAC0B042B092B8312031308141C
:10061800093083160313AC001B30AB00AB0B122B55
:10062800AC0B122B172B83160313380883120313F2
:10063800930083160313141C222B232B1D2B293004
:1006480083160313AC009330AB00AB0B292BAC0B18
:10065800292B2E2B07300A128A1533200A128A11E9
:1006680083160313AB002B08B70029308316031336
:10067800AC009330AB00AB0B3F2BAC0B3F2B442BA8
:10068800831203138814093083160313AC001B303C
:10069800AB00AB0B4D2BAC0B4D2B522B8312031322
:1006A8000810093083160313AC001B30AB00AB0BEA
:1006B8005B2BAC0B5B2B602B831603133708831261
:1006C8000313930083160313141C6B2B6C2B662BDC
:1006D8000B10831603133B08031D732B742B542C28
:1006E800831203130C1F792B7A2B542C1F0C83169F
:1006F8000313AB002B0C0F39003A031D842B852BF9
:10070800C62B831203131E0883160313AB002B0892
:10071800BA00A501FF30AB002B08A6000D30A700DA
:100728000030A8005030A9000030AA003A080A1288
:100738008A156D210A128A11831603132608B6003A
:100748002508B5003608AC003508AB000310AC0C22
:10075800AB0C0310AC0CAB0C2B08831203139500E5
:100768008316031335080339AB00AB0E831203134A
:100778001708831603132B06CF392B06831203138E
:100788009700522C831203131F0C83160313AB001C
:100798002B0C0F39013A031DD22BD32B262C831295
:1007A80003131E0883160313AB002B08B900A50119
:1007B800FF30AB002B08A6000D30A7000030A800C2
:1007C8005030A9000030AA0039080A128A156D2194
:1007D8000A128A11831603132608B4002508B300E9
:1007E8003408AC003308AB000310AC0CAB0C03109E
:1007F800AC0CAB0C2B08831203139B00831603135A
:1008080033080139AB00AB0E831203131D0883169E
:1008180003132B06EF392B06831203139D0083164F
:10082800031333080239AB00AB0EAB0D831203136D
:100838001D08831603132B06DF392B0683120313B7
:100848009D00522C831203131F0C83160313AB0055
:100858002B0C0F39023A031D322C332C3C2C8312FB
:1008680003131E0883160313AB002B08B800522C81
:10087800831203131F0C83160313AB002B0C0F39C1
:10088800033A031D482C492C522C831203131E08CB
:1008980083160313AB002B08B700522C83120C13DA
:1008A800831603132F08FF002E088A002D0E8300DD
:1008B800FE0E7E0E0900831203133D088039C20024
:1008C8004208C7003D08C2004207C3004308CD00E4
:1008D800BC1F6F2C702C712C4D144D080319752CEE
:1008E800762C852C4D0A031D7A2C7B2C832C00300A
:1008F800BD000030BC000030BB000030BA00BC179F
:100908008D2C0030BD000030BC000030BB00003032
:10091800BA0041088039C2004208C7064108C2002F
:100928004207C3004308CC00C01F9B2C9C2C9D2C65
:100938004C144C080319A12CA22CB12C4C0A031DF1
:10094800A62CA72CAF2C0030C1000030C00000300E
:10095800BF000030BE00C017B92C0030C100003005
:10096800C0000030BF000030BE004C080319BD2C89
:10097800BE2CC32C4D08031DC22CC32CCC2C00301C
:10098800BD000030BC000030BB000030BA00BF2FF3
:100998003A08C2004208F00040080A128A11C0272B
:1009A8000A128A11710883120313D3007008D20047
:1009B8005208C200C301C401C5014508CB00440860
:1009C800CA004308C9004208C8005308C200C3014E
:1009D800C401C5014508D1004408D0004308CF0030
:1009E8004208CE003B08C2004208F0003F080A1245
:1009F8008A11C0270A128A11710883120313D300BF
:100A08007008D2005208C200C301C401C5014208DF
:100A1800C807430803110318013E0319142DC90719
:100A2800440803110318013E03191B2DCA07450882
:100A380003110318013E0319222DCB075308C200E6
:100A4800C301C401C5014208CE07430803110318B6
:100A5800013E0319302DCF07440803110318013E46
:100A68000319372DD007450803110318013E031950
:100A78003E2DD1073C08C2004208F0003E080A1289
:100A88008A11C0270A128A11710883120313D3002E
:100A98007008D2005208C200C301C401C50142084F
:100AA800C807430803110318013E03195C2DC90741
:100AB800440803110318013E0319632DCA074508AA
:100AC80003110318013E03196A2DCB075308C2000E
:100AD800C301C401C5014208CE0743080311031826
:100AE800013E0319782DCF07440803110318013E6E
:100AF80003197F2DD007450803110318013E031978
:100B0800862DD1070830C2000310C80DC90DCA0DC3
:100B1800CB0DC20B882D3B08C2004208F0003E08EE
:100B28000A128A11C0270A128A1171088312031344
:100B3800D3007008D2005208C2005308C300C40191
:100B4800C5014208C807430803110318013E0319E9
:100B5800AE2DC907440803110318013E0319B52D2A
:100B6800CA07450803110318013E0319BC2DCB071A
:100B78003A08C2004208F0003F080A128A11C0274A
:100B88000A128A11710883120313D3007008D20065
:100B98005208C2005308C300C401C5014208C8076F
:100BA800430803110318013E0319DB2DC907440844
:100BB80003110318013E0319E22DCA074508031162
:100BC8000318013E0319E92DCB070830C2000310B2
:100BD800C80DC90DCA0DCB0DC20BEB2D3A08C200CA
:100BE8004208F0003E080A128A11C0270A128A1128
:100BF800710883120313D3007008D2005208C20090
:100C08005308C300C401C5014208C80743080311BB
:100C18000318013E0319112EC907440803110318CC
:100C2800013E0319182ECA07450803110318013E8F
:100C380003191F2ECB073B08C2004208F0004008EA
:100C48000A128A11C0270A128A1171088312031323
:100C5800D3007008D2005208C2005308C300C40170
:100C6800C5014208CE07430803110318013E0319C2
:100C78003E2ECF07440803110318013E0319452EE1
:100C8800D007450803110318013E03194C2ED1075C
:100C98003C08C2004208F0003F080A128A11C02727
:100CA8000A128A11710883120313D3007008D20044
:100CB8005208C2005308C300C401C5014208CE0748
:100CC800430803110318013E03196B2ECF0744088C
:100CD80003110318013E0319722ED00745080311AA
:100CE8000318013E0319792ED1073C08C2004208B7
:100CF800F00040080A128A11C0270A128A117108E6
:100D080083120313D3007008D2005208C20053089C
:100D1800C300C401C50108300310C20DC30DC40DC2
:100D2800C50DFF3E031D902E4208CE074308031150
:100D38000318013E0319A12ECF0744080311031815
:100D4800013E0319A82ED007450803110318013ED8
:100D58000319AF2ED1074808C2004908C3004A0842
:100D6800C4004B08C50018300310C50CC40CC30CD4
:100D7800C20CFF3E031DB82E4208CE0743080311DC
:100D88000318013E0319C92ECF074408031103189D
:100D9800013E0319D02ED007450803110318013E60
:100DA8000319D72ED1070830C2000310C80DC90D8A
:100DB800CA0DCB0DC20BD92E4D084C07C200C3017A
:100DC800C30D4208823ED20043080318013EFF3E8D
:100DD800D3000B2F0130C2000310CE0DCF0DD00D64
:100DE800D10DC20BF02ECB1FFA2EFB2EFC2E4E146B
:100DF8000130C2000310C80DC90DCA0DCB0DC20BBE
:100E0800FE2EFF30D2070318D30AFF30D307D01FB6
:100E18000E2F0F2FEE2ECC01CB1F132F142F302F98
:100E2800FF304805C200FF304905C300FF304A05BE
:100E3800C4007F304B05C500450844044304420400
:100E48000319272F282F2B2FCC01CC0A302F4E1C0B
:100E58002E2F2F2F302F282F4C080319342F352FE2
:100E6800662F0130CE07003003180130CF0700305D
:100E780003180130D007003003180130D107511C86
:100E8800462F472F662F4E08C2004F08C300500850
:100E9800C4005108C5000130C600450DC50CC40C7E
:100EA800C30CC20CC60B512F4508D1004408D00012
:100EB8004308CF004208CE000130D2070318D30AF6
:100EC8000030D3075308803AFF0080307F02031DAB
:100ED8006F2FFF305202031C722F732F7E2F7F302B
:100EE80083120313D1008030D0000030CF000030CF
:100EF800CE00B32F831203135308803AFF008030CB
:100F08007F02031D892F0130520203188C2F8D2F69
:100F1800992F003083120313D1000030D000003025
:100F2800CF000030CE00C701B32F8312031352083D
:100F3800C2004208CD00FF30CE05FF30CF057F301C
:100F4800D0050030D1054D1CAA2FAB2FAC2FD017E0
:100F58004D08C2000310420CC3004308D1004708E3
:100F6800C2004208D1045108BD005008BC004F0817
:100F7800BB004E08BA000800F800F401F50170083B
:100F8800F200F3017208F6007308F700781CCD2F01
:100F9800CE2FD42F7608F4070318F50A7708F5073B
:100FA80001300310F60DF70DFF3E031DD52F03107A
:100FB800F80C7808031DE12FE22FCA2F7508F100FD
:100FC8007408F0000800F1007108831203178D00FF
:100FD80070088C00831603178C130C158B1355306F
:100FE8008D00AA308D008C140C110B108B17080083
:101058000234013401340134013401340134F00024
:101068007008831203178D00831603178C130C1452
:10107800831203170C0808007E088A007F08820084
:101088000A128A1540200A128A158000840A040868
:101098007D0603190034FF0A0319FE0A44280F309D
:1010A80083160317880089010F3083160313850000
:1010B800860188018901831203138501860188014D
:1010C80089011030831603138700831203138701E5
:1010D800F0309405141294168316031314179417FA
:1010E8008312031393018B170B170C138316031327
:1010F8000C178B151614961416150B100614861457
:10110800061581131514951415150F088F393038E5
:101118008F000F143F30831203139F0583160313A8
:101128001F129F12C330831203139F0583160313E4
:101138009F13831203131F140C3083160313B0007C
:10114800B00BA428000083160313071587149C30DE
:1011580092008312031397019D013F3097051708EA
:10116800F0390C3897001D08F0390C389D002630EE
:1011780095003030970426309B001D169D120330D1
:1011880092048C1012158C1CCA28CB28C7288C10E6
:101198008316031387100711080003108312031323
:1011A8006A0D6B0D83160313A00020088312031326
:1011B800ED006D08031DE128E228EB280030EB0064
:1011C8000030EA000030E9000030E8006C296808C7
:1011D80083160313A00083120313690883160313ED
:1011E800A100831203136A0883160313A200831253
:1011F80003136B0883160313A3001F300310A30CFB
:10120800A20CA10CA00CFF3E031D02292008A4007B
:10121800240883120313EC00EA17FF30E805FF30B7
:10122800E905FF30EA050030EB059630ED02ED1FC9
:101238001E291F293D296D08803A973E0318252944
:1012480026292729E22801300310EB0CEA0CE90CC7
:10125800E80CFF3E031D2829013083160313A00064
:10126800200883120313ED07031D3B293C29272976
:101278005C2920306D02031C422943295729E228A2
:10128800013083160313A000031083120313E80D23
:10129800E90DEA0DEB0D83160313A00B4829013065
:1012A80083120313ED026D08031D5B295C29442991
:1012B8006C080319602961296C29E809E909EA0918
:1012C800EB09E80A0319E90A0319EA0A0319EB0A00
:1012D800080083120313EE00831603132708F00097
:1012E8002808F100F201F30100300A128A151F22C2
:1012F8000A128A15730883120313DB007208DA00D6
:101308007108D9007008D80083160313270829022A
:10131800F0002808031C280A2A02F100F201F30150
:1013280000300A128A151F220A128A1573088312BE
:101338000313A7007208A6007108A5007008A4008E
:101348008316031325082602F000F101031CF1039C
:10135800F201F11BF2037208F30001300A128A1538
:101368001F220A128A15730883120313A300720836
:10137800A2007108A1007008A0000A128A159B2318
:101388000A128A15831203132308C1002208C00019
:101398002108BF002008BE00831603132508831206
:1013A80003136E02F000F101031CF103F201F11BBB
:1013B800F2037208F30001300A128A151F220A127A
:1013C8008A15730883120313BD007208BC007108E4
:1013D800BB007008BA000A128A115F240A128A1523
:1013E800831203133D08D7003C08D6003B08D500FC
:1013F8003A08D4000A128A1578250A128A15831227
:1014080003135708EB005608EA005508E90054088A
:10141800E8000A128A15D1200A128A1583120313CA
:10142800690883160313A60083120313680883163A
:101438000313A5000800F80078080319242A252AB0
:10144800392AF31F282A292A392A7009FA0071092A
:10145800FB007209FC007309FD00FA0A0319FB0A74
:101468000319FC0A0319FD0A412A7308FD007208D2
:10147800FC007108FB007008FA007308720471041C
:101488007004031D482A492A522A0030F30000300C
:10149800F2000030F1000030F000D82A9630F40055
:1014A8007408F900642A0130F4007408F90701305F
:1014B8000310FD0CFC0CFB0CFA0CFF3E031D5C2A10
:1014C800FE307D05031D692A6A2A572A862A0130BB
:1014D800F4007408F9070130FA07003003180130E6
:1014E800FB07003003180130FC07003003180130F7
:1014F800FD0701300310FD0CFC0CFB0CFA0CFF3E41
:10150800031D7E2AFF307D05031D8B2A8C2A6B2A3A
:10151800982A0130F9020130F4000310FA0DFB0D8E
:10152800FC0DFD0DF40B912AFC1B9B2A9C2AA22A78
:10153800023079020318A12AA22A8D2A7918A52A2D
:10154800A62AAE2AFF30FA05FF30FB057F30FC05DE
:10155800FF30FD050310F90C7908F400F501F601D8
:10156800F70118300310F40DF50DF60DF70DFF3ED9
:10157800031DB62A7408FA047508FB047608FC04EF
:101588007708FD0478080319CA2ACB2AD02AF31F42
:10159800CE2ACF2AD02AFD177D08F3007C08F20056
:1015A8007B08F1007A08F00008000A128A15532017
:1015B8000A128A15831203139F18E32AE42A392B87
:1015C8001F0C83160313B100310C0F39003A031DA9
:1015D800EE2AEF2AF92A831203131F08C3390438A5
:1015E8009F00F62AF72A0000332B831203131F0CDF
:1015F80083160313B100310C0F39013A031D052B73
:10160800062B0D2B831203131F08C33908389F00BC
:10161800F52A831203131F0C83160313B100310C30
:101628000F39023A031D192B1A2B212B831203138E
:101638001F08C3390C389F00F52A831203131F0CA7
:1016480083160313B100310C0F39033A031D2D2BF8
:101658002E2B332BC330831203139F05F52A342B0B
:10166800352B0000831203139F140513051B3D2B14
:101678003E2B8C2B8810093083160313B2001B30C5
:10168800B100B10B452BB20B452B4A2B8312031328
:101698000814093083160313B2001B30B100B10BD4
:1016A800532BB20B532B582B831603133808831272
:1016B8000313930083160313141C632B642B5E2BF4
:1016C800831203138814093083160313B2001B30E6
:1016D800B100B10B6D2BB20B6D2B722B8312031360
:1016E8000810093083160313B2001B30B100B10B88
:1016F8007B2BB20B7B2B802B8316031337088312AB
:101708000313930083160313141C8B2B8C2B862B2B
:10171800093083160313B2001B30B100B10B922BB2
:10172800B20B922B972BDE2A0A128A1110288312E9
:10173800031327088039A8002808B1002708A80043
:101748002807A9002908B800A61FAB2BAC2BAD2B86
:10175800381438080319B12BB22BC22B380A031DD1
:10176800B62BB72BBF2B0030A7000030A6000030E7
:10177800A5000030A400A617A701CA2B0030A700B7
:101788000030A6000030A5000030A40023088039EE
:10179800A8002808B1062308A8002807A9002908D6
:1017A800B900A21FD82BD92BDA2B39143908031901
:1017B800DE2BDF2BEF2B390A031DE32BE42BEC2B5D
:1017C8000030A3000030A2000030A1000030A000CB
:1017D800A217A301F72B0030A3000030A2000030AD
:1017E800A1000030A0002308220421042004031DC6
:1017F800FE2BFF2B182C0030A7000030A60000306D
:10180800A5000030A4008030A6047F30A70431086A
:10181800A8002808A7042708A3002608A20025086E
:10182800A1002408A000772D3808031D1C2C1D2CAE
:10183800262C0030A3000030A2000030A1000030A8
:10184800A000772D3808A800A9012908AB0039089D
:101858002802AA00031CAB032A087F3EB2002B080B
:101868000318013E003EB3002708B0002608AF0069
:101878002508AE002408AD000030A7000030A600FF
:101888000030A5000030A4000030B7000030B600DA
:101898000030B5000030B400B9019C2C3908031998
:1018A800562C572C772C0130A8000310AD0DAE0D27
:1018B800AF0DB00DA80B592C0130A8000310A40DD2
:1018C800A50DA60DA70DA80B622CB71F6C2C6D2CAF
:1018D8006E2C24140130A8000310B40DB50DB60DFC
:1018E800B70DA80B702C23083002031D852C220885
:1018F8002F02031D852C21082E02031D852C20088C
:101908002D02031C882C892C982C37172008AD022F
:101918002108031C210FAE022208031C220FAF026C
:101928002308031C230FB0020130A8002808B907B8
:101938001A303902031CA12CA22C522C30082F0477
:101948002E042D040319A92CAA2CC92C3414C92C33
:101958000130A8000310A40DA50DA60DA70DA80B16
:10196800AE2CB71FB82CB92CBA2C24140130A800FF
:101978000310B40DB50DB60DB70DA80BBC2CFF3078
:10198800B2070318B30AFF30B307A61FCC2CCD2C1F
:10199800AC2CB901B71FD12CD22CEE2CFF3034055A
:1019A800A800FF303505A900FF303605AA007F30B2
:1019B8003705AB002B082A04290428040319E52C51
:1019C800E62CE92CB901B90AEE2C241CEC2CED2CE0
:1019D800EE2CE62C39080319F22CF32C242D0130B7
:1019E800A407003003180130A507003003180130A0
:1019F800A607003003180130A707271C042D052D62
:101A0800242D2408A8002508A9002608AA002708CC
:101A1800AB000130AC002B0DAB0CAA0CA90CA80C28
:101A2800AC0B0F2D2B08A7002A08A6002908A50033
:101A38002808A4000130B2070318B30A0030B3071E
:101A48003308803AFF0080307F02031D2D2DFF30C0
:101A58003202031C302D312D3F2DFF30831203132A
:101A6800B2000030B3000030A7000030A6000030FC
:101A7800A5000030A400831203133308803AFF0046
:101A880080307F02031D4A2D0130320203184D2D8C
:101A98004E2D5B2D83120313B201B3010030A70052
:101AA8000030A6000030A5000030A400B101831268
:101AB80003133208A8002808B800381C642D652DC7
:101AC800672DA6176B2D7F30A8002808A6053808B3
:101AD800A8000310280CA9002908A7003108A800AD
:101AE8002808A7040F2C080083120313570880390D
:101AF800DC005C08E4005708DC005C07DD005D08DA
:101B0800E600D61F882D892D8A2D661466080319CC
:101B18008E2D8F2D9F2D660A031D932D942D9C2DA0
:101B28000030D7000030D6000030D5000030D40097
:101B3800D617D701A72D0030D7000030D6000030C7
:101B4800D5000030D4005B088039DC005C08E50073
:101B5800650864060319B12DB22DB32D64175B080F
:101B6800DC005C07DD005D08E500DA1FBC2DBD2D3B
:101B7800BE2D651465080319C22DC32DD32D650A22
:101B8800031DC72DC82DD02D0030DB000030DA0032
:101B98000030D9000030D800DA17DB01DB2D003027
:101BA800DB000030DA000030D9000030D8006608C9
:101BB80065020318E02DE12D252E641FE42DE52D87
:101BC800E92D8030DC005C08E4066608DC005C086F
:101BD800E7006508DC005C08E6006708DC005C08D4
:101BE800E5005408DC005C08E7005808DC005C08E5
:101BF800D4006708DC005C08D8005508DC005C08E5
:101C0800E7005908DC005C08D5006708DC005C08C0
:101C1800D9005608DC005C08E7005A08DC005C08BC
:101C2800D6006708DC005C08DA005708DC005C08AE
:101C3800E7005B08DC005C08D7006708DC005C088C
:101C4800DB00E7016508DC00DD015D08DF006608F0
:101C58005C02DE00031CDF035F08803AFF0080306F
:101C68007F02031D392E1A305E02031C3C2E3D2EC6
:101C78007A2E831203135708560455045404031D7F
:101C8800462E482E0130492E0030DC005C08E70063
:101C98000030D7000030D6000030D5000030D40026
:101CA8006508DC005C08E600822E671C5C2E5D2E51
:101CB800662E6708DC0003105C0C0138DD005D0847
:101CC800E700682E0310E70C541C6B2E6C2E6D2E4B
:101CD800E7170130DC00570DD70CD60CD50CD40C07
:101CE800DC0B6F2E0130DC005C08E607831203135F
:101CF80065086602031C812E822E592E641B852ED0
:101D0800862ED12E6608031D8A2E8B2E942E003027
:101D1800D7000030D6000030D5000030D400FF2FA7
:101D28005808D407590803110318013E03199D2EBA
:101D3800D5075A0803110318013E0319A42ED60724
:101D48005B0803110318013E0319AB2ED707571C74
:101D5800AE2EAF2E852F671CB22EB32EBC2E670871
:101D6800DC0003105C0C0138DD005D08E700BE2EC6
:101D78000310E70C541CC12EC22EC32EE7170130E6
:101D8800DC00570DD70CD60CD50CD40CDC0BC52EAB
:101D98000130DC005C08E607852F5708803AFF0011
:101DA8005B08803A7F02031DE32E5A085602031D82
:101DB800E32E59085502031DE32E58085402031850
:101DC800E62EE72E3F2FFF30DC00FF30DD00FF302E
:101DD800DE00FF30DF005808E0005908E1005A082B
:101DE800E2005B08E3005408E0025508031C550FA5
:101DF800FE2EFF2EE1025608031C560F042F052F56
:101E0800E2025708031C570F0A2F0B2FE302600842
:101E1800DC0761080318610F122F132FDD07620812
:101E28000318620F182F192FDE0763080318630AB7
:101E3800DF075F08D7005E08D6005D08D5005C089C
:101E4800D4008030DC005C08E406E709E70A67088C
:101E5800031D2F2F302F4D2F0130D40700300318CA
:101E68000130D507003003180130D60700300318B9
:101E78000130D7074D2F5808D4025908031C590FB1
:101E8800D5025A08031C5A0FD6025B08031C5B0FC5
:101E9800D7025708560455045404031D542F552FD0
:101EA800812F6708031D592F5A2F812F0030D70023
:101EB8000030D6000030D5000030D400FF2F0130AC
:101EC800DC000310D40DD50DD60DD70DDC0B652F16
:101ED800E71F6F2F702F712F5414671C742F752FE5
:101EE800782F0314E70D7A2F0310E70D66080319FE
:101EF8007E2F7F2F812F0130E602D61F842F852F5A
:101F0800632FE501E71F892F8A2F982F67087F39EC
:101F180003198F2F902F932FE501E50A982F541C52
:101F2800962F972F982F902F650803199C2F9D2F78
:101F3800D12F0130D407003003180130D507003005
:101F480003180130D607003003180130D707571C93
:101F5800AE2FAF2FD12F5408DC005508DD005608EE
:101F6800DE005708DF000130E0005F0DDF0CDE0CFB
:101F7800DD0CDC0CE00BB92F5F08D7005E08D6003B
:101F88005D08D5005C08D400660A0319CC2FCD2F54
:101F9800D12F0130DC005C08E607660A0319D52F4B
:101FA800D62FDB2F6608031DDA2FDB2FE92F003031
:101FB800D7000030D6000030D5000030D4006608C5
:101FC800031DE72FE82FE92FE401661CEC2FED2F06
:101FD800EF2FD617F32F7F30DC005C08D605660894
:101FE800DC0003105C0CDD005D08D700E41FFD2F4A
:081FF800FE2FFF2FD717080090
:102EAC00831603133A08F2007208F00000300A127D
:102EBC008A11E7270A168A112930F3009430F200A0
:102ECC00F20B662FF30B662F0000831603133908E1
:102EDC00F2007208F00001300A128A11E7270A1674
:102EEC008A112930F3009430F200F20B7B2FF30B94
:102EFC007B2F0000831603133808F2007208F000D1
:102F0C0002300A128A11E7270A168A112930F300B7
:102F1C009430F200F20B902FF30B902F00008316DD
:102F2C0003133708F2007208F00003300A128A11FA
:102F3C00E7270A168A112930F3009430F200F20BBD
:102F4C00A52FF30BA52F00000800831603133A08D6
:102F5C00F2007208F00004300A128A11E7270A16F0
:102F6C008A112930F3009430F200F20BBB2FF30BD3
:102F7C00BB2F0000831603133908F2007208F0000F
:102F8C0005300A128A11E7270A168A112930F30034
:102F9C009430F200F20BD02FF30BD02F00008316DD
:102FAC0003133808F2007208F00006300A128A1176
:102FBC00E7270A168A112930F3009430F200F20B3D
:102FCC00E52FF30BE52F0000831603133708F200EF
:102FDC007208F00007300A128A11E7270A168A11C4
:102FEC002930F3009430F200F20BFA2FF30BFA2F86
:042FFC0000000800C9
:08400000FF3FFF3FFF3FFF3FC0
:04400E00D420FF3F7C
:00000001FF
