:060000000A128A1110280B
:10000800FE00030E83160313AD000A08AE007F0836
:10001800AF000A128A11332E0A128A111328831686
:1000280003130A128A11E0270A128A11BC000A1265
:100038008A11E1270A128A11BD000A128A11E227E1
:100048000A128A11BE000A128A11E3270A128A11BB
:10005800BF000A128A11E4270A128A11C00083120B
:1000680003130A128A11E5270A128A11EF00831670
:100078000313B301B401B501B601B701B801B90161
:10008800BA01BB0183010A128A111E2F83120313BE
:100098003D088039C2004208C7003D08C200420737
:1000A800C3004308CD00BC1F5A285B285C284D14A8
:1000B8004D0803196028612870284D0A031D65281A
:1000C80066286E280030BD000030BC000030BB0040
:1000D8000030BA00BC1778280030BD000030BC00E2
:1000E8000030BB000030BA0041088039C200420825
:1000F800C7064108C2004207C3004308CC00C01F1E
:100108008628872888284C144C0803198C288D28A1
:100118009C284C0A031D912892289A280030C10077
:100128000030C0000030BF000030BE00C017A42857
:100138000030C1000030C0000030BF000030BE00F9
:100148004C080319A828A928AE284D08031DAD2876
:10015800AE28B7280030BD000030BC000030BB001E
:100168000030BA00AA2B3A08C2004208F000400842
:100178000A128A1584230A128A117108831203133A
:10018800D3007008D2005208C200C301C401C501DF
:100198004508CB004408CA004308C9004208C80003
:1001A8005308C200C301C401C5014508D100440871
:1001B800D0004308CF004208CE003B08C2004208E6
:1001C800F0003F080A128A1584230A128A1171085E
:1001D80083120313D3007008D2005208C200C3016F
:1001E800C401C5014208C807430803110318013EAA
:1001F8000319FF28C907440803110318013E03190E
:100208000629CA07450803110318013E03190D29D9
:10021800CB075308C200C301C401C5014208CE0779
:10022800430803110318013E03191B29CF0744088B
:1002380003110318013E03192229D00745080311A9
:100248000318013E03192929D1073C08C2004208B6
:10025800F0003E080A128A1584230A128A117108CE
:1002680083120313D3007008D2005208C200C301DE
:10027800C401C5014208C807430803110318013E19
:1002880003194729C907440803110318013E031934
:100298004E29CA07450803110318013E03195529B9
:1002A800CB075308C200C301C401C5014208CE07E9
:1002B800430803110318013E03196329CF074408B3
:1002C80003110318013E03196A29D00745080311D1
:1002D8000318013E03197129D1070830C200031021
:1002E800C80DC90DCA0DCB0DC20B73293B08C2003E
:1002F8004208F0003E080A128A1584230A128A115D
:10030800710883120313D3007008D2005208C20088
:100318005308C300C401C5014208C80743080311B4
:100328000318013E03199929C90744080311031842
:10033800013E0319A029CA07450803110318013E05
:100348000319A729CB073A08C2004208F0003F0862
:100358000A128A1584230A128A1171088312031358
:10036800D3007008D2005208C2005308C300C40169
:10037800C5014208C807430803110318013E0319C1
:10038800C629C907440803110318013E0319CD29DA
:10039800CA07450803110318013E0319D429CB07DE
:1003A8000830C2000310C80DC90DCA0DCB0DC20B11
:1003B800D6293A08C2004208F0003E080A128A15F7
:1003C80084230A128A11710883120313D300700858
:1003D800D2005208C2005308C300C401C501420834
:1003E800C807430803110318013E0319FC29C9076C
:1003F800440803110318013E0319032ACA074508D4
:1004080003110318013E03190A2ACB073B08C2004F
:100418004208F00040080A128A1584230A128A1139
:10042800710883120313D3007008D2005208C20067
:100438005308C300C401C5014208CE07430803118D
:100448000318013E0319292ACF074408031103188A
:10045800013E0319302AD007450803110318013E4D
:100468000319372AD1073C08C2004208F0003F08A8
:100478000A128A1584230A128A1171088312031337
:10048800D3007008D2005208C2005308C300C40148
:10049800C5014208CE07430803110318013E03199A
:1004A800562ACF07440803110318013E03195D2A91
:1004B800D007450803110318013E0319642AD10720
:1004C8003C08C2004208F00040080A128A1584233A
:1004D8000A128A11710883120313D3007008D2001C
:1004E8005208C2005308C300C401C50108300310F4
:1004F800C20DC30DC40DC50DFF3E031D7B2A420866
:10050800CE07430803110318013E03198C2ACF07AD
:10051800440803110318013E0319932AD00745081C
:1005280003110318013E03199A2AD1074808C2008B
:100538004908C3004A08C4004B08C5001830031016
:10054800C50CC40CC30CC20CFF3E031DA32A4208F1
:10055800CE07430803110318013E0319B42ACF0735
:10056800440803110318013E0319BB2AD0074508A4
:1005780003110318013E0319C22AD1070830C2002B
:100588000310C80DC90DCA0DCB0DC20BC42A4D08E6
:100598004C07C200C301C30D4208823ED200430883
:1005A8000318013EFF3ED300F62A0130C2000310B3
:1005B800CE0DCF0DD00DD10DC20BDB2ACB1FE52AF6
:1005C800E62AE72A4E140130C2000310C80DC90DEF
:1005D800CA0DCB0DC20BE92AFF30D2070318D30A84
:1005E800FF30D307D01FF92AFA2AD92ACC01CB1F0A
:1005F800FE2AFF2A1B2BFF304805C200FF304905A1
:10060800C300FF304A05C4007F304B05C5004508CC
:100618004404430442040319122B132B162BCC0158
:10062800CC0A1B2B4E1C192B1A2B1B2B132B4C08DB
:1006380003191F2B202B512B0130CE070030031834
:100648000130CF07003003180130D00700300318FD
:100658000130D107511C312B322B512B4E08C200CF
:100668004F08C3005008C4005108C5000130C60037
:10067800450DC50CC40CC30CC20CC60B3C2B45085D
:10068800D1004408D0004308CF004208CE00013012
:10069800D2070318D30A0030D3075308803AFF0063
:1006A80080307F02031D5A2BFF305202031C5D2B42
:1006B8005E2B692B7F3083120313D1008030D0006A
:1006C8000030CF000030CE009E2B83120313530856
:1006D800803AFF0080307F02031D742B01305202E4
:1006E8000318772B782B842B003083120313D10047
:1006F8000030D0000030CF000030CE00C7019E2B64
:10070800831203135208C2004208CD00FF30CE0501
:10071800FF30CF057F30D0050030D1054D1C952B1B
:10072800962B972BD0174D08C2000310420CC3001C
:100738004308D1004708C2004208D1045108BD004F
:100748005008BC004F08BB004E08BA0008008312CE
:10075800031357088039DC005C08E4005708DC0004
:100768005C07DD005D08E600D61FBB2BBC2BBD2B4C
:10077800661466080319C12BC22BD22B660A031D07
:10078800C62BC72BCF2B0030D7000030D600003047
:10079800D5000030D400D617D701DA2B0030D700A7
:1007A8000030D6000030D5000030D4005B08803916
:1007B800DC005C08E500650864060319E42BE52BFA
:1007C800E62B64175B08DC005C07DD005D08E500CC
:1007D800DA1FEF2BF02BF12B651465080319F52BA5
:1007E800F62B062C650A031DFA2BFB2B032C003075
:1007F800DB000030DA000030D9000030D800DA170A
:10080800DB010E2C0030DB000030DA000030D900AC
:100818000030D800660865020318132C142C582CD5
:10082800641F172C182C1C2C8030DC005C08E40694
:100838006608DC005C08E7006508DC005C08E60088
:100848006708DC005C08E5005408DC005C08E70089
:100858005808DC005C08D4006708DC005C08D80095
:100868005508DC005C08E7005908DC005C08D50086
:100878006708DC005C08D9005608DC005C08E70063
:100888005A08DC005C08D6006708DC005C08DA005F
:100898005708DC005C08E7005B08DC005C08D70050
:1008A8006708DC005C08DB00E7016508DC00DD01A7
:1008B8005D08DF0066085C02DE00031CDF035F08DA
:1008C800803AFF0080307F02031D6C2C1A305E02D4
:1008D800031C6F2C702CAD2C83120313570856047D
:1008E80055045404031D792C7B2C01307C2C0030DA
:1008F800DC005C08E7000030D7000030D60000308C
:10090800D5000030D4006508DC005C08E600B52C92
:10091800671C8F2C902C992C6708DC0003105C0C4A
:100928000138DD005D08E7009B2C0310E70C541C20
:100938009E2C9F2CA02CE7170130DC00570DD70CFC
:10094800D60CD50CD40CDC0BA22C0130DC005C08D6
:10095800E6078312031365086602031CB42CB52C42
:100968008C2C641BB82CB92C042D6608031DBD2CD7
:10097800BE2CC72C0030D7000030D6000030D50080
:100988000030D400322E5808D40759080311031830
:10099800013E0319D02CD5075A0803110318013E4C
:1009A8000319D72CD6075B0803110318013E031956
:1009B800DE2CD707571CE12CE22CB82D671CE52C40
:1009C800E62CEF2C6708DC0003105C0C0138DD0016
:1009D8005D08E700F12C0310E70C541CF42CF52CEF
:1009E800F62CE7170130DC00570DD70CD60CD50CC8
:1009F800D40CDC0BF82C0130DC005C08E607B82DC1
:100A08005708803AFF005B08803A7F02031D162DC5
:100A18005A085602031D162D59085502031D162D96
:100A2800580854020318192D1A2D722DFF30DC00B6
:100A3800FF30DD00FF30DE00FF30DF005808E00047
:100A48005908E1005A08E2005B08E3005408E00294
:100A58005508031C550F312D322DE1025608031C91
:100A6800560F372D382DE2025708031C570F3D2D1E
:100A78003E2DE3026008DC0761080318610F452D6D
:100A8800462DDD0762080318620F4B2D4C2DDE073B
:100A980063080318630ADF075F08D7005E08D600FB
:100AA8005D08D5005C08D4008030DC005C08E406F2
:100AB800E709E70A6708031D622D632D802D0130C1
:100AC800D407003003180130D5070030031801306F
:100AD800D607003003180130D707802D5808D402F4
:100AE8005908031C590FD5025A08031C5A0FD6027D
:100AF8005B08031C5B0FD7025708560455045404BF
:100B0800031D872D882DB42D6708031D8C2D8D2D71
:100B1800B42D0030D7000030D6000030D5000030AA
:100B2800D400322E0130DC000310D40DD50DD60DC3
:100B3800D70DDC0B982DE71FA22DA32DA42D54143F
:100B4800671CA72DA82DAB2D0314E70DAD2D0310A1
:100B5800E70D66080319B12DB22DB42D0130E60258
:100B6800D61FB72DB82D962DE501E71FBC2DBD2D3D
:100B7800CB2D67087F390319C22DC32DC62DE5017A
:100B8800E50ACB2D541CC92DCA2DCB2DC32D6508C4
:100B98000319CF2DD02D042E0130D40700300318AF
:100BA8000130D507003003180130D607003003188C
:100BB8000130D707571CE12DE22D042E5408DC0024
:100BC8005508DD005608DE005708DF000130E00058
:100BD8005F0DDF0CDE0CDD0CDC0CE00BEC2D5F0890
:100BE800D7005E08D6005D08D5005C08D400660A08
:100BF8000319FF2D002E042E0130DC005C08E607E7
:100C0800660A0319082E092E0E2E6608031D0D2EDE
:100C18000E2E1C2E0030D7000030D6000030D50034
:100C28000030D4006608031D1A2E1B2E1C2EE4016A
:100C3800661C1F2E202E222ED617262E7F30DC0073
:100C48005C08D6056608DC0003105C0CDD005D0856
:100C5800D700E41F302E312E322ED717080083120A
:100C680003130C1F382E392E132F1F0C8316031352
:100C7800AB002B0C0F39003A031D432E442E852E52
:100C8800831203131E0883160313AB002B08BB0043
:100C9800A501FF30AB002B08A6000D30A7000030DF
:100CA800A8005030A9000030AA003B080A128A1593
:100CB800B7240A128A11831603132608B6002508DA
:100CC800B5003608AC003508AB000310AC0CAB0C13
:100CD8000310AC0CAB0C2B0883120313950083167E
:100CE800031335080339AB00AB0E8312031317083F
:100CF800831603132B06CF392B0683120313970091
:100D0800112F831203131F0C83160313AB002B0C34
:100D18000F39013A031D912E922EE52E83120313EB
:100D28001E0883160313AB002B08BA00A501FF3079
:100D3800AB002B08A6000D30A7000030A8005030EB
:100D4800A9000030AA003A080A128A15B7240A1224
:100D58008A11831603132608B4002508B300340843
:100D6800AC003308AB000310AC0CAB0C0310AC0C9C
:100D7800AB0C2B08831203139B0083160313330851
:100D88000139AB00AB0E831203131D08831603133E
:100D98002B06EF392B06831203139D0083160313CA
:100DA80033080239AB00AB0EAB0D831203131D08D9
:100DB800831603132B06DF392B06831203139D00BA
:100DC800112F831203131F0C83160313AB002B0C74
:100DD8000F39023A031DF12EF22EFB2E8312031354
:100DE8001E0883160313AB002B08B900112F8312BA
:100DF80003131F0C83160313AB002B0C0F39033A94
:100E0800031D072F082F112F831203131E088316A3
:100E18000313AB002B08B800112F83120C13831691
:100E280003132F08FF002E088A002D0E8300FE0EE4
:100E38007E0E09000A128A15AB230A128A11831240
:100E480003139F18282F292F7E2F1F0C8316031397
:100E5800B100310C0F39003A031D332F342F3E2FC8
:100E6800831203131F08C33904389F003B2F3C2FFC
:100E78000000782F831203131F0C83160313B1008D
:100E8800310C0F39013A031D4A2F4B2F522F831271
:100E980003131F08C33908389F003A2F831203131E
:100EA8001F0C83160313B100310C0F39023A031DCE
:100EB8005E2F5F2F662F831203131F08C3390C3868
:100EC8009F003A2F831203131F0C83160313B100DC
:100ED800310C0F39033A031D722F732F782FC3304B
:100EE800831203139F053A2F792F7A2F000083125C
:100EF80003139F140513051B822F832FD12F8810EE
:100F0800093083160313B2001B30B100B10B8A2FCE
:100F1800B20B8A2F8F2F83120313081409308316FC
:100F28000313B2001B30B100B10B982FB20B982FEE
:100F38009D2F831603133908831203139300831616
:100F48000313141CA82FA92FA32F8312031388148B
:100F5800093083160313B2001B30B100B10BB22F56
:100F6800B20BB22FB72F8312031308100930831660
:100F78000313B2001B30B100B10BC02FB20BC02F4E
:100F8800C52F83160313380883120313930083169F
:100F98000313141CD02FD12FCB2F09308316031322
:100FA800B2001B30B100B10BD72FB20BD72FDC2FFB
:100FB800232F0A128A111028013401340134013414
:040FC80001340134BB
:10170800F800F401F5017008F200F3017208F60020
:101718007308F700781C912B922B982B7608F40706
:101728000318F50A7708F50701300310F60DF70DD1
:10173800FF3E031D992B0310F80C7808031DA52BF9
:10174800A62B8E2B7508F1007408F00008000F30E6
:1017580083160317880089010F3083160313850049
:1017680086018801831203138501860188011030E0
:10177800831603138700831203138701F03094053F
:101788001412941683160313141794178312031351
:1017980093018B170B170C13831603130C170F08E1
:1017A8008F3930388F000F143F30831203139F0591
:1017B800831603131F129F12C330831203139F054E
:1017C800831603139F13831203131F140C308316FD
:1017D8000313B000B00BEE2B00008316031307159C
:1017E80087149C3092008312031397019D013F30A8
:1017F80097051708F0390C3897001D08F0390C3890
:101808009D00263095003030970426309B001D1629
:101818009D12033092048C1012158C1C142C152C5C
:10182800112C8C108316031387100711080003105E
:10183800831203136A0D6B0D83160313A00020088F
:1018480083120313ED006D08031D2B2C2C2C352C53
:101858000030EB000030EA000030E9000030E8001A
:10186800B62C680883160313A000831203136908B3
:1018780083160313A100831203136A088316031344
:10188800A200831203136B0883160313A3001F30EF
:101898000310A30CA20CA10CA00CFF3E031D4C2CA2
:1018A8002008A400240883120313EC00EA17FF3071
:1018B800E805FF30E905FF30EA050030EB05963012
:1018C800ED02ED1F682C692C872C6D08803A973E35
:1018D80003186F2C702C712C2C2C01300310EB0C7E
:1018E800EA0CE90CE80CFF3E031D722C013083164C
:1018F8000313A000200883120313ED07031D852C92
:10190800862C712CA62C20306D02031C8C2C8D2C5F
:10191800A12C2C2C013083160313A0000310831272
:101928000313E80DE90DEA0DEB0D83160313A00B65
:10193800922C013083120313ED026D08031DA52CB0
:10194800A62C8E2C6C080319AA2CAB2CB62CE809F3
:10195800E909EA09EB09E80A0319E90A0319EA0A95
:101968000319EB0A080083120313EE00831603130E
:101978002708F0002808F100F201F30100300A12EC
:101988008A1569250A128A15730883120313DB0066
:101998007208DA007108D9007008D800831603139A
:1019A80027082902F0002808031C280A2A02F10047
:1019B800F201F30100300A128A1569250A128A1504
:1019C800730883120313A7007208A6007108A50004
:1019D8007008A4008316031325082602F000F101FD
:1019E800031CF103F201F11BF2037208F30001304A
:1019F8000A128A1569250A128A15730883120313B5
:101A0800A3007208A2007108A1007008A0000A12C1
:101A18008A1523260A128A15831203132308C10084
:101A28002208C0002108BF002008BE008316031347
:101A38002508831203136E02F000F101031CF10361
:101A4800F201F11BF2037208F30001300A128A1541
:101A580069250A128A15730883120313BD007208D8
:101A6800BC007108BB007008BA000A128A114A202B
:101A78000A128A15831203133D08D7003C08D600C2
:101A88003B08D5003A08D4000A128A11AB230A127F
:101A98008A15831203135708EB005608EA00550805
:101AA800E9005408E8000A128A151B240A128A154C
:101AB80083120313690883160313A6008312031302
:101AC800680883160313A5000800F80078080319AE
:101AD8006E2D6F2D832DF31F722D732D832D70099D
:101AE800FA007109FB007209FC007309FD00FA0A8B
:101AF8000319FB0A0319FC0A0319FD0A8B2D730845
:101B0800FD007208FC007108FB007008FA007308F9
:101B1800720471047004031D922D932D9C2D0030C6
:101B2800F3000030F2000030F1000030F000222E07
:101B38009630F4007408F900AE2D0130F4007408F2
:101B4800F90701300310FD0CFC0CFB0CFA0CFF3EEE
:101B5800031DA62DFE307D05031DB32DB42DA12D2B
:101B6800D02D0130F4007408F9070130FA0700306D
:101B780003180130FB07003003180130FC07003060
:101B880003180130FD0701300310FD0CFC0CFB0CA1
:101B9800FA0CFF3E031DC82DFF307D05031DD52D12
:101BA800D62DB52DE22D0130F9020130F4000310D5
:101BB800FA0DFB0DFC0DFD0DF40BDB2DFC1BE52DCB
:101BC800E62DEC2D023079020318EB2DEC2DD72DE4
:101BD8007918EF2DF02DF82DFF30FA05FF30FB05B1
:101BE8007F30FC05FF30FD050310F90C7908F4007F
:101BF800F501F601F70118300310F40DF50DF60D97
:101C0800F70DFF3E031D002E7408FA047508FB0447
:101C18007608FC047708FD0478080319142E152E9D
:101C28001A2EF31F182E192E1A2EFD177D08F300F1
:101C38007C08F2007B08F1007A08F00008008312A3
:101C4800031327088039A8002808B1002708A8002E
:101C58002807A9002908B800A61F332E342E352ED0
:101C6800381438080319392E3A2E4A2E380A031D1B
:101C78003E2E3F2E472E0030A7000030A600003031
:101C8800A5000030A400A617A701522E0030A70017
:101C98000030A6000030A5000030A40023088039D9
:101CA800A8002808B1062308A8002807A9002908C1
:101CB800B900A21F602E612E622E3914390803194B
:101CC800662E672E772E390A031D6B2E6C2E742E06
:101CD8000030A3000030A2000030A1000030A000B6
:101CE800A217A3017F2E0030A3000030A20000300D
:101CF800A1000030A0002308220421042004031DB1
:101D0800862E872EA02E0030A7000030A6000030B7
:101D1800A5000030A4008030A6047F30A704310855
:101D2800A8002808A7042708A3002608A200250859
:101D3800A1002408A000FF2F3808031DA42EA52EFB
:101D4800AE2E0030A3000030A2000030A100003009
:101D5800A000FF2F3808A800A9012908AB003908FE
:101D68002802AA00031CAB032A087F3EB2002B08F6
:101D78000318013E003EB3002708B0002608AF0054
:101D88002508AE002408AD000030A7000030A600EA
:101D98000030A5000030A4000030B7000030B600C5
:101DA8000030B5000030B400B901242F39080319F8
:101DB800DE2EDF2EFF2E0130A8000310AD0DAE0D74
:101DC800AF0DB00DA80BE12E0130A8000310A40D33
:101DD800A50DA60DA70DA80BEA2EB71FF42EF52EFC
:101DE800F62E24140130A8000310B40DB50DB60D5D
:101DF800B70DA80BF82E23083002031D0D2F22085B
:101E08002F02031D0D2F21082E02031D0D2F200860
:101E18002D02031C102F112F202F37172008AD0279
:101E28002108031C210FAE022208031C220FAF0257
:101E38002308031C230FB0020130A8002808B907A3
:101E48001A303902031C292F2A2FDA2E30082F04C2
:101E58002E042D040319312F322F512F3414512FF2
:101E68000130A8000310A40DA50DA60DA70DA80B01
:101E7800362FB71F402F412F422F24140130A800BE
:101E88000310B40DB50DB60DB70DA80B442FFF30D8
:101E9800B2070318B30AFF30B307A61F542F552FF4
:101EA800342FB901B71F592F5A2F762FFF30340519
:101EB800A800FF303505A900FF303605AA007F309D
:101EC8003705AB002B082A042904280403196D2FB1
:101ED8006E2F712FB901B90A762F241C742F752F14
:101EE800762F6E2F390803197A2F7B2FAC2F0130EC
:101EF800A407003003180130A5070030031801308B
:101F0800A607003003180130A707271C8C2F8D2F38
:101F1800AC2F2408A8002508A9002608AA0027082D
:101F2800AB000130AC002B0DAB0CAA0CA90CA80C13
:101F3800AC0B972F2B08A7002A08A6002908A50094
:101F48002808A4000130B2070318B30A0030B30709
:101F58003308803AFF0080307F02031DB52FFF3021
:101F68003202031CB82FB92FC72FFF308312031377
:101F7800B2000030B3000030A7000030A6000030E7
:101F8800A5000030A400831203133308803AFF0031
:101F980080307F02031DD22F013032020318D52F63
:101FA800D62FE32F83120313B201B3010030A70029
:101FB8000030A6000030A5000030A400B101831253
:101FC80003133208A8002808B800381CEC2FED2F9E
:101FD800EF2FA617F32F7F30A8002808A60538088A
:101FE800A8000310280CA9002908A7003108A80098
:081FF8002808A704972E080039
:08400000FF3FFF3FFF3FFF3FC0
:04400E00D420FF3F7C
:00000001FF
