:100000000A128A1110280134FE00030E831603130E
:10001000AD000A08AE007F08AF000A128A15592BFE
:100020000A128A111328831603130A128A15012053
:100030000A128A11DA000A128A1502200A128A119B
:10004000DB000A128A1503200A128A11DC000A1248
:100050008A1504200A128A11DD000A128A15052069
:100060000A128A11DE000A128A1506200A128A1163
:10007000DF00831203130A128A1103200A128A1165
:10008000EF0083160317DB01DC01DD01DE018316BF
:100090000313D001D101D201D301D401D501D6017E
:1000A000D701D801D90183010A168A15112B8316AD
:1000B00003172008803983160313CB004B088316DF
:1000C0000317A500200883160313CB004B07CC00B1
:1000D0004C0883160317AB009F1F6F2870287128E8
:1000E0002B142B0803197528762885282B0A031D45
:1000F0007A287B2883280030A00000309F00003041
:100100009E0000309D009F178D280030A000003019
:100110009F0000309E0000309D0024088039831627
:100120000313CB004B0883160317A5062408831678
:100130000313CB004B07CC004C0883160317A60013
:10014000A31FA328A428A528261426080319A92834
:10015000AA28B928260A031DAE28AF28B7280030E0
:10016000A4000030A3000030A2000030A100A317BB
:10017000C1280030A4000030A3000030A2000030ED
:10018000A10026080319C528C628CB282B08031D63
:10019000CA28CB28D4280030A00000309F000030AF
:1001A0009E0000309D00AB2D1D0883160313CB006D
:1001B0004B08B0008316031723080A168A15A920D6
:1001C0000A128A1183160313310883160317B1002C
:1001D00083160313300883160317B0003008831604
:1001E0000313CB00CC01CD01CE014E0883160317BB
:1001F000AA00831603134D0883160317A90083165C
:1002000003134C0883160317A800831603134B0827
:1002100083160317A700310883160313CB00CC0104
:10022000CD01CE014E0883160317AF0083160313CA
:100230004D0883160317AE00831603134C0883166C
:100240000317AD00831603134B0883160317AC0086
:100250001E0883160313CB004B08B0008316031748
:1002600022080A168A15A9200A128A118316031376
:10027000310883160317B100831603133008831661
:100280000317B000300883160313CB00CC01CD0157
:10029000CE014B0883160317A707831603134C08D8
:1002A00003110318013E0319582983160317A807E1
:1002B000831603134D0803110318013E0319632924
:1002C00083160317A907831603134E080311031897
:1002D000013E03196E2983160317AA078316031319
:1002E00083160317310883160313CB00CC01CD010D
:1002F000CE014B0883160317AC07831603134C0873
:1003000003110318013E0319882983160317AD074B
:10031000831603134D0803110318013E0319932993
:1003200083160317AE07831603134E080311031831
:10033000013E03199E2983160317AF078316031383
:10034000831603171F0883160313CB004B08B00056
:100350008316031721080A168A15A9200A128A1182
:1003600083160313310883160317B1008316031392
:10037000300883160317B000300883160313CB0030
:10038000CC01CD01CE014B0883160317A7078316B6
:1003900003134C0803110318013E0319D2298316D5
:1003A0000317A807831603134D0803110318013E12
:1003B0000319DD2983160317A907831603134E08B3
:1003C00003110318013E0319E82983160317AA072E
:1003D0008316031383160317310883160313CB0008
:1003E000CC01CD01CE014B0883160317AC07831651
:1003F00003134C0803110318013E0319022A831644
:100400000317AD07831603134D0803110318013EAC
:1004100003190D2A83160317AE07831603134E081C
:1004200003110318013E0319182A83160317AF0797
:100430008316031383160317083083160313CB00A8
:10044000031083160317A70DA80DA90DAA0D831677
:100450000313CB0B202A831603171E0883160313DE
:10046000CB004B08B0008316031721080A168A1523
:10047000A9200A128A118316031331088316031761
:10048000B10083160313300883160317B000300839
:1004900083160313CB008316031731088316031347
:1004A000CC00CD01CE014B0883160317A707831696
:1004B00003134C0803110318013E0319622A831623
:1004C0000317A807831603134D0803110318013EF1
:1004D00003196D2A83160317A907831603134E0801
:1004E00003110318013E0319782A83160317AA077C
:1004F00083160313831603171D0883160313CB00FB
:100500004B08B0008316031722080A168A15A92083
:100510000A128A1183160313310883160317B100D8
:1005200083160313300883160317B00030088316B0
:100530000313CB0083160317310883160313CC0073
:10054000CD01CE014B0883160317A70783160313AB
:100550004C0803110318013E0319B12A831603172F
:10056000A807831603134D0803110318013E03194E
:10057000BC2A83160317A907831603134E08031119
:100580000318013E0319C72A83160317AA07831607
:10059000031383160317083083160313CB000310CD
:1005A00083160317A70DA80DA90DAA0D8316031313
:1005B000CB0BCF2A831603171D0883160313CB001A
:1005C0004B08B0008316031721080A168A15A920C4
:1005D0000A128A1183160313310883160317B10018
:1005E00083160313300883160317B00030088316F0
:1005F0000313CB0083160317310883160313CC00B3
:10060000CD01CE014B0883160317A70783160313EA
:100610004C0803110318013E0319112B831603170D
:10062000A807831603134D0803110318013E03198D
:100630001C2B83160317A907831603134E080311F7
:100640000318013E0319272B83160317AA078316E5
:100650000313831603171E0883160313CB004B08DE
:10066000B0008316031723080A168A15A9200A1258
:100670008A1183160313310883160317B1008316FA
:100680000313300883160317B000300883160313D2
:10069000CB0083160317310883160313CC00CD015A
:1006A000CE014B0883160317AC07831603134C08BF
:1006B00003110318013E0319602B83160317AD07BE
:1006C000831603134D0803110318013E03196B2B06
:1006D00083160317AE07831603134E08031103187E
:1006E000013E0319762B83160317AF0783160313F6
:1006F000831603171F0883160313CB004B08B000A3
:100700008316031722080A168A15A9200A128A11CD
:1007100083160313310883160317B10083160313DE
:10072000300883160317B000300883160313CB007C
:1007300083160317310883160313CC00CD01CE01B5
:100740004B0883160317AC07831603134C080311D9
:100750000318013E0319AF2B83160317AD07831649
:1007600003134D0803110318013E0319BA2B831616
:100770000317AE07831603134E0803110318013E37
:100780000319C52B83160317AF07831603138316AC
:1007900003171F0883160313CB004B08B000831602
:1007A000031723080A168A15A9200A128A1183162C
:1007B0000313310883160317B1008316031330089F
:1007C00083160317B000300883160313CB0083167B
:1007D0000317310883160313CC00CD01CE01083076
:1007E0000310CB0DCC0DCD0DCE0DFF3E031DF02B18
:1007F0004B0883160317AC07831603134C08031129
:100800000318013E0319072C83160317AD0783163F
:1008100003134D0803110318013E0319122C83160C
:100820000317AE07831603134E0803110318013E86
:1008300003191D2C83160317AF07831603138316A2
:100840000317270883160313CB0083160317280802
:1008500083160313CC00831603172908831603138A
:10086000CD00831603172A0883160313CE00183011
:100870000310CE0CCD0CCC0CCB0CFF3E031D382C42
:100880004B0883160317AC07831603134C08031198
:100890000318013E03194F2C83160317AD07831667
:1008A00003134D0803110318013E03195A2C831634
:1008B0000317AE07831603134E0803110318013EF6
:1008C0000319652C83160317AF07831603138316CA
:1008D0000317083083160313CB0003108316031786
:1008E000A70DA80DA90DAA0D83160313CB0B6D2C14
:1008F000831603172B08260783160313CB00CC019E
:10090000CC0D4B08823E83160317B00083160313E9
:100910004C080318013EFF3E83160317B100BD2C9F
:10092000013083160313CB00031083160317AC0D9D
:10093000AD0DAE0DAF0D83160313CB0B942C8316A8
:100940000317AA1FA42CA52CA62C2C140130831647
:100950000313CB00031083160317A70DA80DA90DD1
:10096000AA0D83160313CB0BAA2CFF308316031793
:10097000B0070318B10AFF30B107AE1FC02CC12C5D
:10098000902CA601AA1FC52CC62CF42CFF302705DD
:1009900083160313CB00FF30831603172805831635
:1009A0000313CC00FF3083160317290583160313A6
:1009B000CD007F30831603172A0583160313CE005C
:1009C0004E084D044C044B040319E72CE82CED2C85
:1009D00083160317A601A60AF42C831603172C1CF2
:1009E000F22CF32CF42CE82C26080319F82CF92C03
:1009F000462D0130AC07003003180130AD07003040
:100A000003180130AE07003003180130AF072F1C68
:100A10000A2D0B2D462D2C0883160313CB008316AD
:100A200003172D0883160313CC00831603172E0813
:100A300083160313CD00831603172F0883160313A1
:100A4000CE000130CF004E0DCE0CCD0CCC0CCB0C1B
:100A5000CF0B232D4E0883160317AF008316031305
:100A60004D0883160317AE00831603134C08831634
:100A70000317AD00831603134B0883160317AC004E
:100A80000130B0070318B10A0030B1073108803ACD
:100A9000FF0080307F02031D4F2DFF303002031C0A
:100AA000522D532D5E2D7F3083160317AF008030FB
:100AB000AE000030AD000030AC009B2D8316031754
:100AC0003108803AFF0080307F02031D692D01301C
:100AD000300203186C2D6D2D792D0030831603170D
:100AE000AF000030AE000030AD000030AC00A5011A
:100AF0009B2D83160317300883160313CB004B0876
:100B000083160317AB00FF30AC05FF30AD057F3017
:100B1000AE050030AF052B1C8E2D8F2D902DAE17FE
:100B20002B0883160313CB0003104B0CCC004C088E
:100B300083160317AF00250883160313CB004B0859
:100B400083160317AF042F08A0002E089F002D085E
:100B50009E002C089D00080083120313270880398B
:100B6000A8002808B1002708A8002807A90029081C
:100B7000B800A61FBC2DBD2DBE2D38143808031992
:100B8000C22DC32DD32D380A031DC72DC82DD02D3E
:100B90000030A7000030A6000030A5000030A400FF
:100BA000A617A701DB2D0030A7000030A6000030FB
:100BB000A5000030A40023088039A8002808B10649
:100BC0002308A8002807A9002908B900A21FE92DB9
:100BD000EA2DEB2D391439080319EF2DF02D002ED5
:100BE000390A031DF42DF52DFD2D0030A300003032
:100BF000A2000030A1000030A000A217A301082E1F
:100C00000030A3000030A2000030A1000030A0009E
:100C10002308220421042004031D0F2E102E292E48
:100C20000030A7000030A6000030A5000030A4006E
:100C30008030A6047F30A7043108A8002808A70444
:100C40002708A3002608A2002508A1002408A00068
:100C5000882F3808031D2D2E2E2E372E0030A3008E
:100C60000030A2000030A1000030A000882F38081A
:100C7000A800A9012908AB0039082802AA00031C12
:100C8000AB032A087F3EB2002B080318013E003E4A
:100C9000B3002708B0002608AF002508AE002408DE
:100CA000AD000030A7000030A6000030A5000030E5
:100CB000A4000030B7000030B6000030B5000030AE
:100CC000B400B901AD2E39080319672E682E882E9D
:100CD0000130A8000310AD0DAE0DAF0DB00DA80B87
:100CE0006A2E0130A8000310A40DA50DA60DA70DB6
:100CF000A80B732EB71F7D2E7E2E7F2E241401305D
:100D0000A8000310B40DB50DB60DB70DA80B812EBC
:100D100023083002031D962E22082F02031D962E53
:100D200021082E02031D962E20082D02031C992E49
:100D30009A2EA92E37172008AD022108031C210F77
:100D4000AE022208031C220FAF022308031C230F4C
:100D5000B0020130A8002808B9071A303902031C74
:100D6000B22EB32E632E30082F042E042D04031947
:100D7000BA2EBB2EDA2E3414DA2E0130A80003105E
:100D8000A40DA50DA60DA70DA80BBF2EB71FC92E2C
:100D9000CA2ECB2E24140130A8000310B40DB50DBB
:100DA000B60DB70DA80BCD2EFF30B2070318B30A4E
:100DB000FF30B307A61FDD2EDE2EBD2EB901B71FF3
:100DC000E22EE32EFF2EFF303405A800FF3035055C
:100DD000A900FF303605AA007F303705AB002B088D
:100DE0002A04290428040319F62EF72EFA2EB90135
:100DF000B90AFF2E241CFD2EFE2EFF2EF72E3908D9
:100E00000319032F042F352F0130A40700300318D6
:100E10000130A507003003180130A6070030031881
:100E20000130A707271C152F162F352F2408A800DF
:100E30002508A9002608AA002708AB000130AC004D
:100E40002B0DAB0CAA0CA90CA80CAC0B202F2B085B
:100E5000A7002A08A6002908A5002808A400013038
:100E6000B2070318B30A0030B3073308803AFF0013
:100E700080307F02031D3E2FFF303202031C412FC2
:100E8000422F502FFF3083120313B2000030B30003
:100E90000030A7000030A6000030A5000030A400FC
:100EA000831203133308803AFF0080307F02031D52
:100EB0005B2F0130320203185E2F5F2F6C2F8312DD
:100EC0000313B201B3010030A7000030A6000030C8
:100ED000A5000030A400B101831203133208A8005A
:100EE0002808B800381C752F762F782FA6177C2F6E
:100EF0007F30A8002808A6053808A8000310280C91
:100F0000A9002908A7003108A8002808A704202E56
:100F10000800831603135908F2007208F000043029
:100F20000A128A11DE270A128A112930F30094303E
:100F3000F200F20B992FF30B992F00008316031385
:100F40005808F2007208F00005300A128A11DE27F4
:100F50000A128A112930F3009430F200F20BAE2FFE
:100F6000F30BAE2F0000831603135708F20072082C
:100F7000F00006300A128A11DE270A128A1129307F
:100F8000F3009430F200F20BC32FF30BC32F0000D9
:100F9000831603135608F2007208F00007300A1295
:100FA0008A11DE270A128A112930F3009430F200E8
:100FB000F20BD82FF30BD82F00000800F1007108B6
:100FC000831203178D0070088C00831603178C138F
:100FD0000C158B1355308D00AA308D008C140C111C
:100FE0000B108B170800F0007008831203178D0098
:100FF000831603178C130C14831203170C080800B4
:1010020002340134013401340134013483120313F4
:10101200EE00831603132708F0002808F100F201FE
:10102200F30100300A168A1557220A128A1573082C
:1010320083120313DB007208DA007108D90070080A
:10104200D8008316031327082902F0002808031C7E
:10105200280A2A02F100F201F30100300A168A1569
:1010620057220A128A15730883120313A700720803
:10107200A6007108A5007008A400831603132508B2
:101082002602F000F101031CF103F201F11BF2034D
:101092007208F30001300A168A1557220A128A15BD
:1010A200730883120313A3007208A2007108A1003F
:1010B2007008A0000A128A11AC250A128A1583123E
:1010C20003132308C1002208C0002108BF00200822
:1010D200BE00831603132508831203136E02F00069
:1010E200F101031CF103F201F11BF2037208F30098
:1010F20001300A168A1557220A128A1573088312BA
:101102000313BD007208BC007108BB007008BA006E
:101112000A168A119F240A128A15831203133D08A4
:10112200D7003C08D6003B08D5003A08D4000A167E
:101132008A1578250A128A15831203135708EB00C1
:101142005608EA005508E9005408E8000A168A150C
:10115200BB210A128A15831203136908831603132B
:10116200A60083120313680883160313A500080060
:101172008316031345088039C600460883160317F1
:101182009400831603134508C6004607C7004708A4
:10119200831603179B0083160313C41FD128D2287A
:1011A200D528831603171B14831603171B0803196C
:1011B200DB28DC28EF281B0A031DE028E128EB28A6
:1011C200003083160313C5000030C4000030C30092
:1011D2000030C2000313C417C501F928003083167A
:1011E2000313C5000030C4000030C3000030C20049
:1011F20041088039C60046088316031794068316F1
:1012020003134108C6004607C700470883160317A1
:101212009C0083160313C01F0F291029132983165C
:1012220003171C14831603171C08031919291A29FA
:101232002D291C0A031D1E291F2929290030831666
:101242000313C1000030C0000030BF000030BE00F8
:101252000313C017C1013729003083160313C100DD
:101262000030C0000030BF000030BE004108400422
:101272003F043E04031D3E293F295C290030C5007E
:101282000030C4000030C3000030C2008030C4040B
:101292007F30C50483160317140883160313C60090
:1012A2004608C5044508C1004408C0004308BF0001
:1012B2004208BE00582B831603171B08031D622920
:1012C20063296E29003083160313C1000030C00069
:1012D2000030BF000030BE00582B1B0883160313DA
:1012E200C600C7014708C900831603171C088316E6
:1012F20003134602C800031CC90348087F3E831635
:10130200031795008316031349080318013E003E94
:1013120083160317960083160313450883160317D3
:10132200930083160313440883160317920083164F
:10133200031343088316031791008316031342080D
:10134200831603179000003083160313C500003084
:10135200C4000030C3000030C200003083160317FF
:101362009A000030990000309800003097009C01EC
:10137200402A1C080319BE29BF29EE290130831611
:101382000313C600031083160317900D910D920DDF
:10139200930D83160313C60BC3290130C600031035
:1013A200C20DC30DC40DC50DC60BD029831603177C
:1013B2009A1FDC29DD29E029831603134214013028
:1013C2000313C600031083160317970D980D990D8A
:1013D2009A0D83160313C60BE329031341088316E0
:1013E20003171302031D0B2A8316031340088316E7
:1013F20003171202031D0B2A831603133F088316D9
:1014020003171102031D0B2A831603133E088316CA
:1014120003171002031C0E2A0F2A382A1A178316E2
:1014220003133E08831603179002831603133F0823
:10143200031C3F0F1D2A202A8316031791028316CD
:1014420003134008031C400F272A2A2A8316031776
:101452009202831603134108031C410F312A342AD6
:10146200831603179302831603138316031701309F
:1014720083160313C6004608831603179C071A3007
:101482001C02031C452A462ABA2913081204110415
:10149200100403194D2A4E2A782A1714782A01308B
:1014A200C6000310C20DC30DC40DC50DC60B522AD2
:1014B200831603179A1F5E2A5F2A622A8316031372
:1014C200421401300313C600031083160317970D4D
:1014D200980D990D9A0D83160313C60B652AFF30DA
:1014E2008316031795070318960AFF30960783168B
:1014F2000313C41F7D2A7E2A502A831603179C01D8
:101502009A1F842A852AB12AFF30170583160313EE
:10151200C600FF3083160317180583160313C7008E
:10152200FF3083160317190583160313C8007F3093
:10153200831603171A0583160313C90049084804C2
:10154200470446040319A62AA72AAC2A83160317BE
:101552009C019C0AB12A421CAF2AB02AB12AA72AAE
:10156200831603171C080319B72AB82AED2A01307B
:1015720083160313C207003003180130C30700307B
:1015820003180130C407003003180130C507451C99
:10159200CB2ACC2AED2A4208C6004308C7004408D9
:1015A200C8004508C9000130CA00490DC90CC80C61
:1015B200C70CC60CCA0BD62A4908C5004808C40085
:1015C2004708C3004608C200013083160317950777
:1015D2000318960A00309607831603171608803AF6
:1015E200FF0080307F02031DF82AFF301502031C22
:1015F200FB2AFC2A0C2BFF308316031795000030C0
:101602009600003083160313C5000030C40000307A
:10161200C3000030C200831603171608803AFF0089
:1016220080307F02031D172B0130150203181A2B7D
:101632001B2B2C2B83160317950196010030831662
:101642000313C5000030C4000030C3000030C200E4
:1016520083160317940183160317150883160313C1
:10166200C6004608831603179B001B1C392B3A2B16
:101672003E2B83160313C417442B7F3083160313A8
:10168200C6004608C405831603171B0883160313F6
:10169200C6000310460CC7004708C500831603178F
:1016A200140883160313C6004608C504532908000C
:1016B2000B1C5C2B5D2B9D2EDF01DF0ADE01DE0A97
:1016C200DC01DC0A831203130618682B692B722BC8
:1016D20083160313DF015F08AB002B088312031389
:1016E200EF006F08831603135F060319792B7A2B19
:1016F2008A2B5F08AB002B0883120313EF00013023
:1017020083160313AB002B08DA075A08831203135C
:1017120089000330831603135A02031C912B922B68
:10172200972BDA015A0883120313890083160313D5
:101732005A08031D9D2B9E2BDC2B83120313861844
:10174200A32BA42BAB2B83160313DE015E08AB0085
:101752002B08DD00831603135D085E060319B22B06
:10176200B32BBD2B5E08AB002B08DD000A168A15D1
:10177200D2200A128A15CA2B831203130619C22B0E
:10178200C32BCA2B83160313DC015C08AB002B08A6
:10179200DB00831603135B085C060319D12BD22BE3
:1017A2009C2E5C08AB002B08DB000A128A118927E9
:1017B2000A128A159C2E5A03031DE02BE12B9C2E44
:1017C200831203138618E62BE72BEE2B83160313E3
:1017D200DE015E08AB002B08DD00831603135D08F3
:1017E2005E060319F52BF62B342D5E08AB002B0891
:1017F200DD0000300A128A11F3270A128A158316B5
:101802000313AB002B08D900093083160313AC0075
:101812001B30AB00AB0B0B2CAC0B0B2C102C831620
:101822000313A501FF30AB002B08A6000D30A70063
:101832000030A8005030A9000030AA0059080A124E
:101842008A1507200A128A15831603132608D30065
:101852002508D2005308AC005208AB000310AC0CB0
:10186200AB0C0310AC0CAB0C2B08831203139500CA
:101872008316031352080339AB00AB0E8312031312
:101882001708831603132B06CF392B068312031373
:101892009700093083160313AC001B30AB00AB0B6F
:1018A200502CAC0B502C552C01300A128A11F32704
:1018B2000A128A1583160313AB002B08D8000930CD
:1018C20083160313AC001B30AB00AB0B662CAC0BC6
:1018D200662C6B2C83160313A501FF30AB002B087B
:1018E200A6000D30A7000030A8005030A90000303B
:1018F200AA0058080A128A1507200A128A158316A6
:1019020003132608D1002508D0005108AC00500866
:10191200AB000310AC0CAB0C0310AC0CAB0C2B08E3
:10192200831203139B008316031350080139AB0083
:10193200AB0E831203131D08831603132B06EF3914
:101942002B06831203139D008316031350080239DA
:10195200AB00AB0EAB0D831203131D0883160313EA
:101962002B06DF392B06831203139D0009308316E1
:101972000313AC001B30AB00AB0BBD2CAC0BBD2C6E
:10198200C22C02300A128A11F3270A128A15831610
:101992000313AB002B08D7008312031388100930FE
:1019A20083160313AC001B30AB00AB0BD62CAC0B75
:1019B200D62CDB2C8312031308140930831603136D
:1019C200AC001B30AB00AB0BE42CAC0BE42CE92CD1
:1019D200831603135708831203139300831603130A
:1019E200141CF42CF52CEF2C093083160313AC00D5
:1019F2001B30AB00AB0BFB2CAC0BFB2C002D0330D4
:101A02000A128A11F3270A128A1583160313AB00EE
:101A12002B08D6008312031388140930831603138C
:101A2200AC001B30AB00AB0B142DAC0B142D192DDD
:101A3200831203130810093083160313AC001B3002
:101A4200AB00AB0B222DAC0B222D272D83160313DB
:101A5200560883120313930083160313141C322DAA
:101A6200332D2D2D412D831203130619392D3A2DB5
:101A7200412D83160313DC015C08AB002B08DB004D
:101A8200831603135B085C060319482D492D9C2E0F
:101A92005C08AB002B08DB0004300A128A11F32722
:101AA2000A128A1583160313AB002B08D9002930BA
:101AB20083160313AC009330AB00AB0B5E2DAC0B63
:101AC2005E2D632D83160313A501FF30AB002B0897
:101AD200A6000D30A7000030A8005030A900003049
:101AE200AA0059080A128A1507200A128A158316B3
:101AF20003132608D3002508D2005308AC0052086D
:101B0200AB000310AC0CAB0C0310AC0CAB0C2B08F1
:101B12008312031395008316031352080339AB0093
:101B2200AB0E831203131708831603132B06CF3948
:101B32002B06831203139700093083160313AC009C
:101B42001B30AB00AB0BA32DAC0BA32DA82D053086
:101B52000A128A11F3270A128A1583160313AB009D
:101B62002B08D800293083160313AC009330AB0046
:101B7200AB0BB92DAC0BB92DBE2D83160313A501EA
:101B8200FF30AB002B08A6000D30A7000030A800E4
:101B92005030A9000030AA0058080A128A150720FE
:101BA2000A128A15831603132608D1002508D000CD
:101BB2005108AC005008AB000310AC0CAB0C031086
:101BC200AC0CAB0C2B08831203139B00831603137C
:101BD20050080139AB00AB0E831203131D088316A4
:101BE20003132B06EF392B06831203139D00831672
:101BF200031350080239AB00AB0EAB0D8312031373
:101C02001D08831603132B06DF392B0683120313D9
:101C12009D00093083160313AC001B30AB00AB0BE5
:101C2200102EAC0B102E152E06300A128A11F32735
:101C32000A128A1583160313AB002B08D70029302A
:101C420083160313AC009330AB00AB0B262EAC0B08
:101C5200262E2B2E831203138810093083160313AA
:101C6200AC001B30AB00AB0B342EAC0B342E392E38
:101C7200831203130814093083160313AC001B30BC
:101C8200AB00AB0B422EAC0B422E472E8316031336
:101C9200570883120313930083160313141C522E46
:101CA200532E4D2E293083160313AC009330AB0014
:101CB200AB0B592EAC0B592E5E2E07300A128A112D
:101CC200F3270A128A1583160313AB002B08D600DA
:101CD200293083160313AC009330AB00AB0B6F2E8D
:101CE200AC0B6F2E742E83120313881409308316E3
:101CF2000313AC001B30AB00AB0B7D2EAC0B7D2E67
:101D0200822E831203130810093083160313AC00CA
:101D12001B30AB00AB0B8B2EAC0B8B2E902E831695
:101D22000313560883120313930083160313141C20
:101D32009B2E9C2E962E0B10831603135A08031DFE
:101D4200A32EA42E842F831203130C1FA92EAA2EB6
:101D5200842F1F0C83160313AB002B0C0F39003A90
:101D6200031DB42EB52EF62E831203131E088316FE
:101D72000313AB002B08D900A501FF30AB002B08E1
:101D8200A6000D30A7000030A8005030A900003096
:101D9200AA0059080A128A1507200A128A15831600
:101DA20003132608D3002508D2005308AC005208BA
:101DB200AB000310AC0CAB0C0310AC0CAB0C2B083F
:101DC2008312031395008316031352080339AB00E1
:101DD200AB0E831203131708831603132B06CF3996
:101DE2002B06831203139700822F831203131F0CF7
:101DF20083160313AB002B0C0F39013A031D022F7C
:101E0200032F562F831203131E0883160313AB00EE
:101E12002B08D800A501FF30AB002B08A6000D301F
:101E2200A7000030A8005030A9000030AA005808CE
:101E32000A128A1507200A128A1583160313260826
:101E4200D1002508D0005108AC005008AB000310A7
:101E5200AC0CAB0C0310AC0CAB0C2B0883120313B1
:101E62009B008316031350080139AB00AB0E83129B
:101E720003131D08831603132B06EF392B06831257
:101E820003139D008316031350080239AB00AB0EF7
:101E9200AB0D831203131D08831603132B06DF39C0
:101EA2002B06831203139D00822F831203131F0C30
:101EB20083160313AB002B0C0F39023A031D622F5A
:101EC200632F6C2F831203131E0883160313AB00B8
:101ED2002B08D700822F831203131F0C83160313C0
:101EE200AB002B0C0F39033A031D782F792F822F69
:101EF200831203131E0883160313AB002B08D600AC
:101F0200822F83120C130230831603135A06031D09
:101F12008B2F8C2FF52F831203138C1E912F922F50
:101F2200F52F1A0883160313AB002B08D5005508AA
:101F3200031D9C2F9D2F9F2FD401F52F5503031DA9
:101F4200A32FA42FA72FD401D40AF52F02305506B0
:101F5200031DAC2FAD2FB22F0230AB002B08D400E3
:101F6200F52F03305506031DB72FB82FBD2F0330B1
:101F7200AB002B08D400F52F04305502031CC22FEE
:101F8200C32FF52F5408031DC72FC82FCF2F550875
:101F9200AB002B0883160317DE00F52F5403031D35
:101FA200D32FD42FDB2F5508AB002B088316031732
:101FB200DD00F52F02305406031DE02FE12FE82F3C
:101FC2005508AB002B0883160317DC00F52F0330EE
:101FD2005406031DED2FEE2FF52F5508AB002B08ED
:101FE20083160317DB00F52F831603132F08FF0058
:0E1FF2002E088A002D0E8300FE0E7E0E0900C2
:10200200031083160317480D490DCA004A08D00071
:102012005008031D0D280E2817280030C900003073
:10202200C8000030C7000030C6007C284608CA003D
:102032004708CB004808CC004908CD001F300310E8
:10204200CD0CCC0CCB0CCA0CFF3E031D20284A0839
:10205200CE004E08CF00C817FF30C605FF30C705B7
:10206200FF30C8050030C9059630D002D01F3A288B
:102072003B2855285008803A973E031841284228A9
:1020820043280E2801300310C90CC80CC70CC60C1B
:10209200FF3E031D44280130CA004A08D007031D31
:1020A2005328542843286C2820305002031C5A28F5
:1020B2005B2867280E280130CA000310C60DC70D21
:1020C200C80DC90DCA0B5E280130D0025008031D8D
:1020D2006B286C285C284F080319702871287C280B
:1020E200C609C709C809C909C60A0319C70A0319D3
:1020F200C80A0319C90A080083160313B80038086E
:102102000319842885289928B31F882889289928A3
:102112003009BA003109BB003209BC003309BD00E5
:10212200BA0A0319BB0A0319BC0A0319BD0AA1287A
:102132003308BD003208BC003108BB003008BA00C9
:102142003308320431043004031DA828A928B22818
:102152000030B3000030B2000030B1000030B000F7
:1021620038299630B4003408B900C4280130B400CC
:102172003408B90701300310BD0CBC0CBB0CBA0CFF
:10218200FF3E031DBC28FE303D05031DC928CA2899
:10219200B728E6280130B4003408B9070130BA077D
:1021A200003003180130BB07003003180130BC07B0
:1021B200003003180130BD0701300310BD0CBC0C08
:1021C200BB0CBA0CFF3E031DDE28FF303D05031D8C
:1021D200EB28EC28CB28F8280130B9020130B400F2
:1021E2000310BA0DBB0DBC0DBD0DB40BF128BC1B09
:1021F200FB28FC280229023039020318012902298E
:10220200ED283918052906290E29FF30BA05FF30B5
:10221200BB057F30BC05FF30BD050310B90C390882
:10222200B400B501B601B70118300310B40DB50DF5
:10223200B60DB70DFF3E031D16293408BA04350842
:10224200BB043608BC043708BD04380803192A2920
:102252002B293029B31F2E292F293029BD173D08DC
:10226200B3003C08B2003B08B1003A08B0000800D5
:1022720083160317D700530883160313B00083167F
:102282000317540883160313B100B201B3010030DF
:102292000A168A117D200A168A118316031333083F
:1022A20083160317B9008316031332088316031724
:1022B200B80083160313310883160317B700831679
:1022C2000313300883160317B6005308550283160A
:1022D2000313B000831603175408031C540A560252
:1022E20083160313B100B201B30100300A168A113A
:1022F2007D200A168A11831603133308C50032089B
:10230200C4003108C3003008C20083160317510805
:10231200520283160313B000B101031CB103B201D0
:10232200B11BB2033208B30001300A168A117D20B4
:102332000A168A11831603133308C1003208C0003B
:102342003108BF003008BE000A128A15B9200A16E9
:102352008A1183160313410883160317A4008316F8
:102362000313400883160317A300831603133F08C1
:1023720083160317A200831603133E08831603175E
:10238200A1005108570283160313B000B101031CC8
:10239200B103B201B11BB2033208B30001300A1615
:1023A2008A117D200A168A118316031333088316B5
:1023B2000317A000831603133208831603179F0026
:1023C200831603133108831603179E008316031323
:1023D2003008831603179D000A128A1157200A1625
:1023E2008A11831603172008B5001F08B4001E08BF
:1023F200B3001D08B2000A168A1117220A168A11A2
:10240200831603173508C9003408C8003308C7000B
:102412003208C6000A168A1101200A168A1183168A
:1024220003174708D2004608D10008008316031795
:1024320035088039BA003A08C2003508BA003A07AE
:10244200BB003B08C400B41F272A282A292A4414A7
:10245200440803192D2A2E2A3E2A440A031D322A31
:10246200332A3B2A0030B5000030B4000030B300FC
:102472000030B200B417B501462A0030B500003072
:10248200B4000030B3000030B20039088039BA001D
:102492003A08C300430842060319502A512A522A15
:1024A20042173908BA003A07BB003B08C300B81FFD
:1024B2005B2A5C2A5D2A431443080319612A622AB3
:1024C200722A430A031D662A672A6F2A0030B9005E
:1024D2000030B8000030B7000030B600B817B901BC
:1024E2007A2A0030B9000030B8000030B70000305E
:1024F200B6004408430203187F2A802AC42A421FD6
:10250200832A842A882A8030BA003A08C2064408FC
:10251200BA003A08C5004308BA003A08C4004508A0
:10252200BA003A08C3003208BA003A08C5003608B1
:10253200BA003A08B2004508BA003A08B6003308B1
:10254200BA003A08C5003708BA003A08B30045088D
:10255200BA003A08B7003408BA003A08C500380889
:10256200BA003A08B4004508BA003A08B80035087B
:10257200BA003A08C5003908BA003A08B500450859
:10258200BA003A08B900C5014308BA00BB013B08CA
:10259200BD0044083A02BC00031CBD033D08803A5A
:1025A200FF0080307F02031DD82A1A303C02031C30
:1025B200DB2ADC2A192B831603173508340433046B
:1025C2003204031DE52AE72A0130E82A0030BA0066
:1025D2003A08C5000030B5000030B4000030B30046
:1025E2000030B2004308BA003A08C400212B451C4F
:1025F200FB2AFC2A052B4508BA0003103A0C0138C5
:10260200BB003B08C500072B0310C50C321C0A2B6C
:102612000B2B0C2BC5170130BA00350DB50CB40CC1
:10262200B30CB20CBA0B0E2B0130BA003A08C40735
:102632008316031743084402031C202B212BF82A7C
:10264200421B242B252B702B4408031D292B2A2BDC
:10265200332B0030B5000030B4000030B30000303E
:10266200B2009E2C3608B207370803110318013E48
:1026720003193C2BB307380803110318013E031951
:10268200432BB407390803110318013E03194A2BDF
:10269200B507351C4D2B4E2B242C451C512B522B90
:1026A2005B2B4508BA0003103A0C0138BB003B080B
:1026B200C5005D2B0310C50C321C602B612B622BF5
:1026C200C5170130BA00350DB50CB40CB30CB20C01
:1026D200BA0B642B0130BA003A08C407242C35081F
:1026E200803AFF003908803A7F02031D822B3808A6
:1026F2003402031D822B37083302031D822B360856
:1027020032020318852B862BDE2BFF30BA00FF30F6
:10271200BB00FF30BC00FF30BD003608BE003708EA
:10272200BF003808C0003908C1003208BE023308B1
:10273200031C330F9D2B9E2BBF023408031C340F46
:10274200A32BA42BC0023508031C350FA92BAA2BDF
:10275200C1023E08BA073F0803183F0FB12BB22B44
:10276200BB0740080318400FB72BB82BBC07410822
:102772000318410ABD073D08B5003C08B4003B08F8
:10278200B3003A08B2008030BA003A08C206C5095E
:10279200C50A4508031DCE2BCF2BEC2B0130B20707
:1027A200003003180130B307003003180130B407BA
:1027B200003003180130B507EC2B3608B202370897
:1027C200031C370FB3023808031C380FB402390850
:1027D200031C390FB5023508340433043204031DD7
:1027E200F32BF42B202C4508031DF82BF92B202C5E
:1027F2000030B5000030B4000030B3000030B20049
:102802009E2C0130BA000310B20DB30DB40DB50DFC
:10281200BA0B042CC51F0E2C0F2C102C3214451C85
:10282200132C142C172C0314C50D192C0310C50DD1
:10283200440803191D2C1E2C202C0130C402B41F85
:10284200232C242C022CC301C51F282C292C372C05
:1028520045087F3903192E2C2F2C322CC301C30AB1
:10286200372C321C352C362C372C2F2C43080319CD
:102872003B2C3C2C702C0130B20700300318013085
:10288200B307003003180130B407003003180130D9
:10289200B507351C4D2C4E2C702C3208BA0033086B
:1028A200BB003408BC003508BD000130BE003D0D40
:1028B200BD0CBC0CBB0CBA0CBE0B582C3D08B500B1
:1028C2003C08B4003B08B3003A08B200440A0319BA
:1028D2006B2C6C2C702C0130BA003A08C407440AE5
:1028E2000319742C752C7A2C4408031D792C7A2C2C
:1028F200882C0030B5000030B4000030B300003046
:10290200B2004408031D862C872C882CC201441C6B
:102912008B2C8C2C8E2CB417922C7F30BA003A0858
:10292200B4054408BA0003103A0CBB003B08B500DA
:10293200C21F9C2C9D2C9E2CB517080083120313DA
:102942003D088039C2004208C7003D08C200420764
:10295200C3004308CD00BC1FAF2CB02CB12C4D14CA
:102962004D080319B52CB62CC52C4D0A031DBA2CE3
:10297200BB2CC32C0030BD000030BC000030BB00BB
:102982000030BA00BC17CD2C0030BD000030BC00B6
:102992000030BB000030BA0041088039C200420852
:1029A200C7064108C2004207C3004308CC00C01F4B
:1029B200DB2CDC2CDD2C4C144C080319E12CE22C12
:1029C200F12C4C0A031DE62CE72CEF2C0030C10041
:1029D2000030C0000030BF000030BE00C017F92C2C
:1029E2000030C1000030C0000030BF000030BE0027
:1029F2004C080319FD2CFE2C032D4D08031D022D3E
:102A0200032D0C2D0030BD000030BC000030BB0097
:102A12000030BA00FF2F3A08C2004208F000400816
:102A22000A168A1582200A168A1171088312031364
:102A3200D3007008D2005208C200C301C401C5010C
:102A42004508CB004408CA004308C9004208C80030
:102A52005308C200C301C401C5014508D10044089E
:102A6200D0004308CF004208CE003B08C200420813
:102A7200F0003F080A168A1582200A168A11710888
:102A820083120313D3007008D2005208C200C3019C
:102A9200C401C5014208C807430803110318013ED7
:102AA2000319542DC907440803110318013E0319E1
:102AB2005B2DCA07450803110318013E0319622D55
:102AC200CB075308C200C301C401C5014208CE07A7
:102AD200430803110318013E0319702DCF07440860
:102AE20003110318013E0319772DD007450803117E
:102AF2000318013E03197E2DD1073C08C20042088B
:102B0200F0003E080A168A1582200A168A117108F8
:102B120083120313D3007008D2005208C200C3010B
:102B2200C401C5014208C807430803110318013E46
:102B320003199C2DC907440803110318013E031908
:102B4200A32DCA07450803110318013E0319AA2D34
:102B5200CB075308C200C301C401C5014208CE0716
:102B6200430803110318013E0319B82DCF07440887
:102B720003110318013E0319BF2DD00745080311A5
:102B82000318013E0319C62DD1070830C2000310F5
:102B9200C80DC90DCA0DCB0DC20BC82D3B08C20012
:102BA2004208F0003E080A168A1582200A168A1187
:102BB200710883120313D3007008D2005208C200B6
:102BC2005308C300C401C5014208C80743080311E2
:102BD2000318013E0319EE2DC90744080311031817
:102BE200013E0319F52DCA07450803110318013EDA
:102BF2000319FC2DCB073A08C2004208F0003F0837
:102C02000A168A1582200A168A1171088312031382
:102C1200D3007008D2005208C2005308C300C40196
:102C2200C5014208C807430803110318013E0319EE
:102C32001B2EC907440803110318013E0319222E53
:102C4200CA07450803110318013E0319292ECB07B1
:102C52000830C2000310C80DC90DCA0DCB0DC20B3E
:102C62002B2E3A08C2004208F0003E080A168A15C6
:102C720082200A168A11710883120313D300700886
:102C8200D2005208C2005308C300C401C501420861
:102C9200C807430803110318013E0319512EC9073F
:102CA200440803110318013E0319582ECA074508A8
:102CB20003110318013E03195F2ECB073B08C20024
:102CC2004208F00040080A168A1582200A168A1164
:102CD200710883120313D3007008D2005208C20095
:102CE2005308C300C401C5014208CE0743080311BB
:102CF2000318013E03197E2ECF074408031103185F
:102D0200013E0319852ED007450803110318013E21
:102D120003198C2ED1073C08C2004208F0003F087C
:102D22000A168A1582200A168A1171088312031361
:102D3200D3007008D2005208C2005308C300C40175
:102D4200C5014208CE07430803110318013E0319C7
:102D5200AB2ECF07440803110318013E0319B22E0C
:102D6200D007450803110318013E0319B92ED107F4
:102D72003C08C2004208F00040080A168A15822068
:102D82000A168A11710883120313D3007008D20045
:102D92005208C2005308C300C401C5010830031021
:102DA200C20DC30DC40DC50DFF3E031DD02E42083A
:102DB200CE07430803110318013E0319E12ECF0782
:102DC200440803110318013E0319E82ED0074508F1
:102DD20003110318013E0319EF2ED1074808C20060
:102DE2004908C3004A08C4004B08C5001830031044
:102DF200C50CC40CC30CC20CFF3E031DF82E4208C6
:102E0200CE07430803110318013E0319092FCF0708
:102E1200440803110318013E0319102FD007450877
:102E220003110318013E0319172FD1070830C200FE
:102E32000310C80DC90DCA0DCB0DC20B192F4D08B9
:102E42004C07C200C301C30D4208823ED2004308B0
:102E52000318013EFF3ED3004B2F0130C200031086
:102E6200CE0DCF0DD00DD10DC20B302FCB1F3A2F6F
:102E72003B2F3C2F4E140130C2000310C80DC90D68
:102E8200CA0DCB0DC20B3E2FFF30D2070318D30A57
:102E9200FF30D307D01F4E2F4F2F2E2FCC01CB1F29
:102EA200532F542F702FFF304805C200FF304905C1
:102EB200C300FF304A05C4007F304B05C5004508FA
:102EC2004404430442040319672F682F6B2FCC017B
:102ED200CC0A702F4E1C6E2F6F2F702F682F4C084C
:102EE2000319742F752FA62F0130CE070030031857
:102EF2000130CF07003003180130D007003003182B
:102F02000130D107511C862F872FA62F4E08C200F1
:102F12004F08C3005008C4005108C5000130C60064
:102F2200450DC50CC40CC30CC20CC60B912F450831
:102F3200D1004408D0004308CF004208CE0001303F
:102F4200D2070318D30A0030D3075308803AFF0090
:102F520080307F02031DAF2FFF305202031CB22FBD
:102F6200B32FBE2F7F3083120313D1008030D000E5
:102F72000030CF000030CE00F32F8312031353082A
:102F8200803AFF0080307F02031DC92F01305202B8
:102F92000318CC2FCD2FD92F003083120313D10069
:102FA2000030D0000030CF000030CE00C701F32F38
:102FB200831203135208C2004208CD00FF30CE052F
:102FC200FF30CF057F30D0050030D1054D1CEA2FF0
:102FD200EB2FEC2FD0174D08C2000310420CC30098
:102FE2004308D1004708C2004208D1045108BD007D
:0E2FF2005008BC004F08BB004E08BA00080093
:10310400F800F401F5017008F200F3017208F6000A
:103114007308F700781C8F28902896287608F407FF
:103124000318F50A7708F50701300310F60DF70DBB
:10313400FF3E031D97280310F80C7808031DA328ED
:10314400A4288C287508F1007408F0000800831680
:103154000313B800B401B5013008B200B30132085A
:10316400B6003308B700381CB828B928BF28360879
:10317400B4070318B50A3708B50701300310B60DB4
:10318400B70DFF3E031DC0280310B80C3808031DFB
:10319400CC28CD28B5283508B1003408B000080083
:1031A400831603135908F2007208F00000300A1263
:1031B4008A11DE270A168A152930F3009430F200AA
:1031C400F20BE228F30BE2280000831603135808DD
:1031D400F2007208F00001300A128A11DE270A1682
:1031E4008A152930F3009430F200F20BF728F30B20
:1031F400F7280000831603135708F2007208F00042
:1032040002300A128A11DE270A168A152930F300C1
:103214009430F200F20B0C29F30B0C2900008316F6
:1032240003135608F2007208F00003300A128A11E0
:10323400DE270A168A152930F3009430F200F20BC7
:103244002129F30B2129000008000F3083160317EE
:10325400880089010F3083160313850088018901D2
:1032640083120313850186018801890110308316B6
:1032740003138700831203138701F030940514129B
:1032840094168316031314179417831203139301CC
:103294008B170B170C13831603130C178B151614AB
:1032A400961416150B10061486140615811315149E
:1032B400951415150F088F3930388F000F143F30CF
:1032C400831203139F05831603131F129F12C33027
:1032D400831203139F05831603139F13831203138F
:1032E4001F140C3083160313B000B00B77290000B1
:1032F40083160313071587149C309200831203135B
:1033040097019D013F3097051708F0390C38970055
:103314001D08F0390C389D00263095003030970494
:1033240026309B001D169D12033092048C1012153A
:103334008C1C9D299E299A298C10831603138710AF
:10334400071118121815831603178715831603130C
:103354009A011930990083120313981783160313E3
:1033640098161817831203131816831603138C1652
:1033740008000310831203136A0D6B0D83160313E5
:10338400A000200883120313ED006D08031DCB2950
:10339400CC29D5290030EB000030EA000030E900E8
:1033A4000030E800562A680883160313A00083122D
:1033B4000313690883160313A100831203136A0815
:1033C40083160313A200831203136B0883160313DB
:1033D400A3001F300310A30CA20CA10CA00CFF3EF1
:1033E400031DEC292008A400240883120313EC0015
:1033F400EA17FF30E805FF30E905FF30EA05003041
:10340400EB059630ED02ED1F082A092A272A6D08DC
:10341400803A973E03180F2A102A112ACC2901302A
:103424000310EB0CEA0CE90CE80CFF3E031D122A16
:10343400013083160313A000200883120313ED0741
:10344400031D252A262A112A462A20306D02031C30
:103454002C2A2D2A412ACC29013083160313A000DB
:10346400031083120313E80DE90DEA0DEB0D831627
:103474000313A00B322A013083120313ED026D08EB
:10348400031D452A462A2E2A6C0803194A2A4B2A68
:10349400562AE809E909EA09EB09E80A0319E90ADD
:1034A4000319EA0A0319EB0A0800F800780803195B
:1034B4005C2A5D2A712AF31F602A612A712A700925
:1034C400FA007109FB007209FC007309FD00FA0A95
:1034D4000319FB0A0319FC0A0319FD0A792A730864
:1034E400FD007208FC007108FB007008FA00730804
:1034F400720471047004031D802A812A8A2A003010
:10350400F3000030F2000030F1000030F000102B26
:103514009630F4007408F9009C2A0130F400740811
:10352400F90701300310FD0CFC0CFB0CFA0CFF3EF8
:10353400031D942AFE307D05031DA12AA22A8F2A89
:10354400BE2A0130F4007408F9070130FA0700308C
:1035540003180130FB07003003180130FC0700306A
:1035640003180130FD0701300310FD0CFC0CFB0CAB
:10357400FA0CFF3E031DB62AFF307D05031DC32A46
:10358400C42AA32AD02A0130F9020130F40003101E
:10359400FA0DFB0DFC0DFD0DF40BC92AFC1BD32AFF
:1035A400D42ADA2A023079020318D92ADA2AC52A57
:1035B4007918DD2ADE2AE62AFF30FA05FF30FB05FA
:1035C4007F30FC05FF30FD050310F90C7908F40089
:1035D400F501F601F70118300310F40DF50DF60DA1
:1035E400F70DFF3E031DEE2A7408FA047508FB0468
:1035F4007608FC047708FD0478080319022B032BD2
:10360400082BF31F062B072B082BFD177D08F3004F
:103614007C08F2007B08F1007A08F00008000A1622
:103624008A1527210A168A15831203139F181B2B48
:103634001C2B712B1F0C83160317D800580C0F3941
:10364400003A031D262B272B312B831203131F084B
:10365400C33904389F002E2B2F2B00006B2B8312B1
:1036640003131F0C83160317D800580C0F39013AA3
:10367400031D3D2B3E2B452B831203131F08C33917
:1036840008389F002D2B831203131F0C8316031776
:10369400D800580C0F39023A031D512B522B592BC9
:1036A400831203131F08C3390C389F002D2B831278
:1036B40003131F0C83160317D800580C0F39033A51
:1036C400031D652B662B6B2BC330831203139F05DD
:1036D4002D2B6C2B6D2B0000831203139F14831668
:1036E40003135A08031D772B782BD92B831203134A
:1036F4000513051B7E2B7F2BCD2B881009308316D9
:103704000317D9001B30D800D80B862BD90B862B76
:103714008B2B831203130814093083160317D90063
:103724001B30D800D80B942BD90B942B992B8316D0
:103734000313570883120313930083160313141CF3
:10374400A42BA52B9F2B83120313881409308316F3
:103754000317D9001B30D800D80BAE2BD90BAE2BD6
:10376400B32B831203130810093083160317D900EF
:103774001B30D800D80BBC2BD90BBC2BC12B831608
:103784000313560883120313930083160313141CA4
:10379400CC2BCD2BC72B093083160317D9001B3034
:1037A400D800D80BD32BD90BD32BD82B162B023004
:1037B4005A06031DDE2BDF2B162B05308316031749
:1037C400D8005808D1007F30D9005908D200003001
:1037D400D300D400FF30D5000030D6005E080A16AE
:1037E4008A1139210A168A15831603175108DA003B
:1037F4005A0883160313D90083160317D101FF3027
:10380400D8005808D2000D30D3000030D400503016
:10381400D5000030D6008316031359080A168A11FE
:1038240039210A168A1583160317520883160313BF
:10383400D30083160317510883160313D2005308C9
:1038440083160317D900831603135208831603172C
:10385400D8000310D90CD80C0310D90CD80C580874
:103864008312031395008316031352080339831636
:103874000317D800D80E83120313170883160317EF
:103884005806CF395806831203139700093083165C
:103894000317D9001B30D800D80B4E2CD90B4E2C53
:1038A400532C053083160317D8005808D1007F30F5
:1038B400D9005908D2000030D300D400FF30D5001D
:1038C4000030D6005D080A168A1139210A168A15B5
:1038D400831603175108DA005A0883160313D80015
:1038E40083160317D101FF30D8005808D2000D30D9
:1038F400D3000030D4005030D5000030D6008316F9
:10390400031358080A168A1139210A168A158316D0
:103914000317520883160313D100831603175108A3
:1039240083160313D000510883160317D900831696
:103934000313500883160317D8000310D90CD80CAE
:103944000310D90CD80C5808831203139B00831658
:1039540003135008013983160317D800D80E8312B5
:1039640003131D08831603175806EF3958068312EC
:1039740003139D008316031350080239831603179B
:10398400D800D80ED80D831203131D08831603170D
:103994005806DF395806831203139D000930831635
:1039A4000317D9001B30D800D80BD62CD90BD62C32
:1039B400DB2C053083160317D8005808D1007F305C
:1039C400D9005908D2000030D300D400FF30D5000C
:1039D4000030D6005C080A168A1139210A168A15A5
:1039E400831603175108DA005A0883160313D70005
:1039F400831203138810093083160317D9001B3070
:103A0400D800D80B032DD90B032D082D83120313D3
:103A14000814093083160317D9001B30D800D80BBB
:103A2400112DD90B112D162D83160313570883124C
:103A34000313930083160313141C212D222D1C2D14
:103A4400093083160317D9001B30D800D80B282D52
:103A5400D90B282D2D2D053083160317D8005808AF
:103A6400D1007F30D9005908D2000030D300D400EF
:103A7400FF30D5000030D6005B080A168A113921C0
:103A84000A168A15831603175108DA005A08831692
:103A94000313D60083120313881409308316031703
:103AA400D9001B30D800D80B552DD90B552D5A2DC4
:103AB400831203130810093083160317D9001B302F
:103AC400D800D80B632DD90B632D682D83160313EF
:103AD400560883120313930083160313141C732DC7
:103AE400742D6E2D162B0A128A11102883120313BB
:103AF40057088039DC005C08E4005708DC005C07E8
:103B0400DD005D08E600D61F882D892D8A2D6614F8
:103B1400660803198E2D8F2D9F2D660A031D932D84
:103B2400942D9C2D0030D7000030D6000030D500F5
:103B34000030D400D617D701A72D0030D7000030AD
:103B4400D6000030D5000030D4005B088039DC009A
:103B54005C08E500650864060319B12DB22DB32D88
:103B640064175B08DC005C07DD005D08E500DA1F14
:103B7400BC2DBD2DBE2D651465080319C22DC32DA2
:103B8400D32D650A031DC72DC82DD02D0030DB00B1
:103B94000030DA000030D9000030D800DA17DB0139
:103BA400DB2D0030DB000030DA000030D9000030BB
:103BB400D800660865020318E02DE12D252E641F48
:103BC400E42DE52DE92D8030DC005C08E406660870
:103BD400DC005C08E7006508DC005C08E6006708B8
:103BE400DC005C08E5005408DC005C08E7005808C9
:103BF400DC005C08D4006708DC005C08D8005508C9
:103C0400DC005C08E7005908DC005C08D5006708A4
:103C1400DC005C08D9005608DC005C08E7005A08A0
:103C2400DC005C08D6006708DC005C08DA00570892
:103C3400DC005C08E7005B08DC005C08D700670870
:103C4400DC005C08DB00E7016508DC00DD015D08E1
:103C5400DF0066085C02DE00031CDF035F08803AB5
:103C6400FF0080307F02031D392E1A305E02031CD0
:103C74003C2E3D2E7A2E8312031357085604550406
:103C84005404031D462E482E0130492E0030DC001A
:103C94005C08E7000030D7000030D6000030D500C3
:103CA4000030D4006508DC005C08E600822E671C46
:103CB4005C2E5D2E662E6708DC0003105C0C013858
:103CC400DD005D08E700682E0310E70C541C6B2E22
:103CD4006C2E6D2EE7170130DC00570DD70CD60C77
:103CE400D50CD40CDC0B6F2E0130DC005C08E6072D
:103CF4008312031365086602031C812E822E592E3B
:103D0400641B852E862ED12E6608031D8A2E8B2ECB
:103D1400942E0030D7000030D6000030D50000309B
:103D2400D400FF2F5808D407590803110318013E83
:103D340003199D2ED5075A0803110318013E0319D0
:103D4400A42ED6075B0803110318013E0319AB2EFA
:103D5400D707571CAE2EAF2E852F671CB22EB32E5D
:103D6400BC2E6708DC0003105C0C0138DD005D0824
:103D7400E700BE2E0310E70C541CC12EC22EC32E26
:103D8400E7170130DC00570DD70CD60CD50CD40C3A
:103D9400DC0BC52E0130DC005C08E607852F5708D4
:103DA400803AFF005B08803A7F02031DE32E5A0825
:103DB4005602031DE32E59085502031DE32E58082D
:103DC40054020318E62EE72E3F2FFF30DC00FF30AD
:103DD400DD00FF30DE00FF30DF005808E000590846
:103DE400E1005A08E2005B08E3005408E0025508C9
:103DF400031C550FFE2EFF2EE1025608031C560F1E
:103E0400042F052FE2025708031C570F0A2F0B2F0C
:103E1400E3026008DC0761080318610F122F132FF7
:103E2400DD0762080318620F182F192FDE076308D5
:103E34000318630ADF075F08D7005E08D6005D0831
:103E4400D5005C08D4008030DC005C08E406E70997
:103E5400E70A6708031D2F2F302F4D2F0130D40799
:103E6400003003180130D507003003180130D6079D
:103E7400003003180130D7074D2F5808D4025908D1
:103E8400031C590FD5025A08031C5A0FD6025B08AB
:103E9400031C5B0FD7025708560455045404031D32
:103EA400542F552F812F6708031D592F5A2F812F07
:103EB4000030D7000030D6000030D5000030D400E8
:103EC400FF2F0130DC000310D40DD50DD60DD70D16
:103ED400DC0B652FE71F6F2F702F712F5414671C95
:103EE400742F752F782F0314E70D7A2F0310E70D25
:103EF400660803197E2F7F2F812F0130E602D61F1B
:103F0400842F852F632FE501E71F892F8A2F982F90
:103F140067087F3903198F2F902F932FE501E50A46
:103F2400982F541C962F972F982F902F65080319BC
:103F34009C2F9D2FD12F0130D4070030031801305E
:103F4400D507003003180130D607003003180130BC
:103F5400D707571CAE2FAF2FD12F5408DC005508BC
:103F6400DD005608DE005708DF000130E0005F0D79
:103F7400DF0CDE0CDD0CDC0CE00BB92F5F08D70086
:103F84005E08D6005D08D5005C08D400660A0319F3
:103F9400CC2FCD2FD12F0130DC005C08E607660A58
:103FA4000319D52FD62FDB2F6608031DDA2FDB2F3D
:103FB400E92F0030D7000030D6000030D5000030A3
:103FC400D4006608031DE72FE82FE92FE401661CDF
:103FD400EC2FED2FEF2FD617F32F7F30DC005C088A
:103FE400D6056608DC0003105C0CDD005D08D70014
:103FF400E41FFD2FFE2FFF2FD7170800FF3FFF3FC1
:04400400FF3FFF3F3C
:04400E00D420FF3F7C
:00000001FF
